{
  "contractName": "WineNotBlockchain",
  "abi": [
    {
      "inputs": [],
      "stateMutability": "nonpayable",
      "type": "constructor"
    },
    {
      "anonymous": false,
      "inputs": [
        {
          "indexed": true,
          "internalType": "address",
          "name": "owner",
          "type": "address"
        },
        {
          "indexed": true,
          "internalType": "address",
          "name": "approved",
          "type": "address"
        },
        {
          "indexed": true,
          "internalType": "uint256",
          "name": "tokenId",
          "type": "uint256"
        }
      ],
      "name": "Approval",
      "type": "event"
    },
    {
      "anonymous": false,
      "inputs": [
        {
          "indexed": true,
          "internalType": "address",
          "name": "owner",
          "type": "address"
        },
        {
          "indexed": true,
          "internalType": "address",
          "name": "operator",
          "type": "address"
        },
        {
          "indexed": false,
          "internalType": "bool",
          "name": "approved",
          "type": "bool"
        }
      ],
      "name": "ApprovalForAll",
      "type": "event"
    },
    {
      "anonymous": false,
      "inputs": [
        {
          "indexed": false,
          "internalType": "address",
          "name": "_owner",
          "type": "address"
        },
        {
          "indexed": false,
          "internalType": "uint256",
          "name": "id",
          "type": "uint256"
        }
      ],
      "name": "BottleCreation",
      "type": "event"
    },
    {
      "anonymous": false,
      "inputs": [
        {
          "indexed": false,
          "internalType": "uint256",
          "name": "id",
          "type": "uint256"
        },
        {
          "indexed": false,
          "internalType": "uint256",
          "name": "price",
          "type": "uint256"
        }
      ],
      "name": "BottleForSale",
      "type": "event"
    },
    {
      "anonymous": false,
      "inputs": [
        {
          "indexed": false,
          "internalType": "address",
          "name": "from",
          "type": "address"
        },
        {
          "indexed": false,
          "internalType": "address",
          "name": "to",
          "type": "address"
        },
        {
          "indexed": false,
          "internalType": "uint256",
          "name": "id",
          "type": "uint256"
        },
        {
          "indexed": false,
          "internalType": "uint256",
          "name": "price",
          "type": "uint256"
        }
      ],
      "name": "BottleTransfer",
      "type": "event"
    },
    {
      "anonymous": false,
      "inputs": [
        {
          "indexed": true,
          "internalType": "address",
          "name": "previousOwner",
          "type": "address"
        },
        {
          "indexed": true,
          "internalType": "address",
          "name": "newOwner",
          "type": "address"
        }
      ],
      "name": "OwnershipTransferred",
      "type": "event"
    },
    {
      "anonymous": false,
      "inputs": [
        {
          "indexed": true,
          "internalType": "address",
          "name": "from",
          "type": "address"
        },
        {
          "indexed": true,
          "internalType": "address",
          "name": "to",
          "type": "address"
        },
        {
          "indexed": true,
          "internalType": "uint256",
          "name": "tokenId",
          "type": "uint256"
        }
      ],
      "name": "Transfer",
      "type": "event"
    },
    {
      "anonymous": false,
      "inputs": [
        {
          "indexed": false,
          "internalType": "address",
          "name": "_address",
          "type": "address"
        },
        {
          "indexed": false,
          "internalType": "bool",
          "name": "whitelist",
          "type": "bool"
        }
      ],
      "name": "WhitelistedProducer",
      "type": "event"
    },
    {
      "inputs": [
        {
          "internalType": "address",
          "name": "to",
          "type": "address"
        },
        {
          "internalType": "uint256",
          "name": "tokenId",
          "type": "uint256"
        }
      ],
      "name": "approve",
      "outputs": [],
      "stateMutability": "nonpayable",
      "type": "function"
    },
    {
      "inputs": [
        {
          "internalType": "address",
          "name": "owner",
          "type": "address"
        }
      ],
      "name": "balanceOf",
      "outputs": [
        {
          "internalType": "uint256",
          "name": "",
          "type": "uint256"
        }
      ],
      "stateMutability": "view",
      "type": "function",
      "constant": true
    },
    {
      "inputs": [
        {
          "internalType": "uint256",
          "name": "tokenId",
          "type": "uint256"
        }
      ],
      "name": "getApproved",
      "outputs": [
        {
          "internalType": "address",
          "name": "",
          "type": "address"
        }
      ],
      "stateMutability": "view",
      "type": "function",
      "constant": true
    },
    {
      "inputs": [
        {
          "internalType": "address",
          "name": "owner",
          "type": "address"
        },
        {
          "internalType": "address",
          "name": "operator",
          "type": "address"
        }
      ],
      "name": "isApprovedForAll",
      "outputs": [
        {
          "internalType": "bool",
          "name": "",
          "type": "bool"
        }
      ],
      "stateMutability": "view",
      "type": "function",
      "constant": true
    },
    {
      "inputs": [],
      "name": "name",
      "outputs": [
        {
          "internalType": "string",
          "name": "",
          "type": "string"
        }
      ],
      "stateMutability": "view",
      "type": "function",
      "constant": true
    },
    {
      "inputs": [],
      "name": "owner",
      "outputs": [
        {
          "internalType": "address",
          "name": "",
          "type": "address"
        }
      ],
      "stateMutability": "view",
      "type": "function",
      "constant": true
    },
    {
      "inputs": [
        {
          "internalType": "uint256",
          "name": "tokenId",
          "type": "uint256"
        }
      ],
      "name": "ownerOf",
      "outputs": [
        {
          "internalType": "address",
          "name": "",
          "type": "address"
        }
      ],
      "stateMutability": "view",
      "type": "function",
      "constant": true
    },
    {
      "inputs": [],
      "name": "renounceOwnership",
      "outputs": [],
      "stateMutability": "nonpayable",
      "type": "function"
    },
    {
      "inputs": [
        {
          "internalType": "address",
          "name": "from",
          "type": "address"
        },
        {
          "internalType": "address",
          "name": "to",
          "type": "address"
        },
        {
          "internalType": "uint256",
          "name": "tokenId",
          "type": "uint256"
        }
      ],
      "name": "safeTransferFrom",
      "outputs": [],
      "stateMutability": "nonpayable",
      "type": "function"
    },
    {
      "inputs": [
        {
          "internalType": "address",
          "name": "from",
          "type": "address"
        },
        {
          "internalType": "address",
          "name": "to",
          "type": "address"
        },
        {
          "internalType": "uint256",
          "name": "tokenId",
          "type": "uint256"
        },
        {
          "internalType": "bytes",
          "name": "data",
          "type": "bytes"
        }
      ],
      "name": "safeTransferFrom",
      "outputs": [],
      "stateMutability": "nonpayable",
      "type": "function"
    },
    {
      "inputs": [
        {
          "internalType": "address",
          "name": "operator",
          "type": "address"
        },
        {
          "internalType": "bool",
          "name": "approved",
          "type": "bool"
        }
      ],
      "name": "setApprovalForAll",
      "outputs": [],
      "stateMutability": "nonpayable",
      "type": "function"
    },
    {
      "inputs": [
        {
          "internalType": "bytes4",
          "name": "interfaceId",
          "type": "bytes4"
        }
      ],
      "name": "supportsInterface",
      "outputs": [
        {
          "internalType": "bool",
          "name": "",
          "type": "bool"
        }
      ],
      "stateMutability": "view",
      "type": "function",
      "constant": true
    },
    {
      "inputs": [],
      "name": "symbol",
      "outputs": [
        {
          "internalType": "string",
          "name": "",
          "type": "string"
        }
      ],
      "stateMutability": "view",
      "type": "function",
      "constant": true
    },
    {
      "inputs": [
        {
          "internalType": "uint256",
          "name": "tokenId",
          "type": "uint256"
        }
      ],
      "name": "tokenURI",
      "outputs": [
        {
          "internalType": "string",
          "name": "",
          "type": "string"
        }
      ],
      "stateMutability": "view",
      "type": "function",
      "constant": true
    },
    {
      "inputs": [
        {
          "internalType": "address",
          "name": "from",
          "type": "address"
        },
        {
          "internalType": "address",
          "name": "to",
          "type": "address"
        },
        {
          "internalType": "uint256",
          "name": "tokenId",
          "type": "uint256"
        }
      ],
      "name": "transferFrom",
      "outputs": [],
      "stateMutability": "nonpayable",
      "type": "function"
    },
    {
      "inputs": [
        {
          "internalType": "address",
          "name": "newOwner",
          "type": "address"
        }
      ],
      "name": "transferOwnership",
      "outputs": [],
      "stateMutability": "nonpayable",
      "type": "function"
    },
    {
      "inputs": [],
      "name": "getTotalSupply",
      "outputs": [
        {
          "internalType": "uint256",
          "name": "",
          "type": "uint256"
        }
      ],
      "stateMutability": "view",
      "type": "function",
      "constant": true
    },
    {
      "inputs": [],
      "name": "getBottlesBalance",
      "outputs": [
        {
          "internalType": "uint256",
          "name": "",
          "type": "uint256"
        }
      ],
      "stateMutability": "view",
      "type": "function",
      "constant": true
    },
    {
      "inputs": [
        {
          "internalType": "uint256",
          "name": "_id",
          "type": "uint256"
        }
      ],
      "name": "getBottleInfo",
      "outputs": [
        {
          "components": [
            {
              "internalType": "address",
              "name": "producer",
              "type": "address"
            },
            {
              "internalType": "string",
              "name": "producerName",
              "type": "string"
            },
            {
              "internalType": "string",
              "name": "designationOfOrigin",
              "type": "string"
            },
            {
              "internalType": "uint256",
              "name": "vintage",
              "type": "uint256"
            },
            {
              "internalType": "uint256",
              "name": "serialNumber",
              "type": "uint256"
            }
          ],
          "internalType": "struct WineNotBlockchain.WineBottle",
          "name": "",
          "type": "tuple"
        }
      ],
      "stateMutability": "view",
      "type": "function",
      "constant": true
    },
    {
      "inputs": [
        {
          "internalType": "uint256",
          "name": "_id",
          "type": "uint256"
        }
      ],
      "name": "getBottleStatus",
      "outputs": [
        {
          "internalType": "enum WineNotBlockchain.bottleStatus",
          "name": "",
          "type": "uint8"
        }
      ],
      "stateMutability": "view",
      "type": "function",
      "constant": true
    },
    {
      "inputs": [
        {
          "internalType": "uint256",
          "name": "_id",
          "type": "uint256"
        }
      ],
      "name": "getBottleURI",
      "outputs": [
        {
          "internalType": "string",
          "name": "",
          "type": "string"
        }
      ],
      "stateMutability": "view",
      "type": "function",
      "constant": true
    },
    {
      "inputs": [
        {
          "internalType": "uint256",
          "name": "_id",
          "type": "uint256"
        }
      ],
      "name": "getBottleOwner",
      "outputs": [
        {
          "internalType": "address",
          "name": "",
          "type": "address"
        }
      ],
      "stateMutability": "view",
      "type": "function",
      "constant": true
    },
    {
      "inputs": [
        {
          "internalType": "uint256",
          "name": "_id",
          "type": "uint256"
        }
      ],
      "name": "getBottleSaleInfo",
      "outputs": [
        {
          "components": [
            {
              "internalType": "uint256",
              "name": "price",
              "type": "uint256"
            },
            {
              "internalType": "bool",
              "name": "onSale",
              "type": "bool"
            }
          ],
          "internalType": "struct WineNotBlockchain.SaleInfo",
          "name": "",
          "type": "tuple"
        }
      ],
      "stateMutability": "view",
      "type": "function",
      "constant": true
    },
    {
      "inputs": [
        {
          "internalType": "uint256",
          "name": "_id",
          "type": "uint256"
        }
      ],
      "name": "getSalesHistory",
      "outputs": [
        {
          "components": [
            {
              "internalType": "address",
              "name": "seller",
              "type": "address"
            },
            {
              "internalType": "address",
              "name": "buyer",
              "type": "address"
            },
            {
              "internalType": "uint256",
              "name": "price",
              "type": "uint256"
            },
            {
              "internalType": "uint256",
              "name": "timestamp",
              "type": "uint256"
            }
          ],
          "internalType": "struct WineNotBlockchain.Sale[]",
          "name": "",
          "type": "tuple[]"
        }
      ],
      "stateMutability": "view",
      "type": "function",
      "constant": true
    },
    {
      "inputs": [
        {
          "internalType": "uint256",
          "name": "_id",
          "type": "uint256"
        }
      ],
      "name": "getCollateralInfo",
      "outputs": [
        {
          "internalType": "uint256",
          "name": "",
          "type": "uint256"
        }
      ],
      "stateMutability": "view",
      "type": "function",
      "constant": true
    },
    {
      "inputs": [
        {
          "internalType": "address",
          "name": "_producer",
          "type": "address"
        }
      ],
      "name": "whitelistProducer",
      "outputs": [],
      "stateMutability": "nonpayable",
      "type": "function"
    },
    {
      "inputs": [
        {
          "internalType": "address",
          "name": "_producer",
          "type": "address"
        }
      ],
      "name": "revokeProducer",
      "outputs": [],
      "stateMutability": "nonpayable",
      "type": "function"
    },
    {
      "inputs": [
        {
          "internalType": "address",
          "name": "_producer",
          "type": "address"
        }
      ],
      "name": "isWhitelistedProducer",
      "outputs": [
        {
          "internalType": "bool",
          "name": "",
          "type": "bool"
        }
      ],
      "stateMutability": "view",
      "type": "function",
      "constant": true
    },
    {
      "inputs": [
        {
          "internalType": "string",
          "name": "_producerName",
          "type": "string"
        },
        {
          "internalType": "string",
          "name": "_designationOfOrigin",
          "type": "string"
        },
        {
          "internalType": "uint256",
          "name": "_vintage",
          "type": "uint256"
        },
        {
          "internalType": "uint256",
          "name": "_serialNumber",
          "type": "uint256"
        },
        {
          "internalType": "string",
          "name": "_tokenURI",
          "type": "string"
        }
      ],
      "name": "mintWineBottle",
      "outputs": [
        {
          "internalType": "uint256",
          "name": "",
          "type": "uint256"
        }
      ],
      "stateMutability": "nonpayable",
      "type": "function"
    },
    {
      "inputs": [
        {
          "internalType": "uint256",
          "name": "_id",
          "type": "uint256"
        },
        {
          "internalType": "uint256",
          "name": "_priceInEther",
          "type": "uint256"
        }
      ],
      "name": "sellBottle",
      "outputs": [],
      "stateMutability": "nonpayable",
      "type": "function"
    },
    {
      "inputs": [
        {
          "internalType": "uint256",
          "name": "_id",
          "type": "uint256"
        }
      ],
      "name": "buyBottle",
      "outputs": [],
      "stateMutability": "payable",
      "type": "function",
      "payable": true
    },
    {
      "inputs": [
        {
          "internalType": "uint256",
          "name": "_id",
          "type": "uint256"
        }
      ],
      "name": "indicateShipmentToProducer",
      "outputs": [],
      "stateMutability": "nonpayable",
      "type": "function"
    },
    {
      "inputs": [
        {
          "internalType": "uint256",
          "name": "_id",
          "type": "uint256"
        }
      ],
      "name": "addCollateral",
      "outputs": [],
      "stateMutability": "payable",
      "type": "function",
      "payable": true
    },
    {
      "inputs": [
        {
          "internalType": "uint256",
          "name": "_id",
          "type": "uint256"
        }
      ],
      "name": "confirmDelivery",
      "outputs": [],
      "stateMutability": "nonpayable",
      "type": "function"
    },
    {
      "inputs": [
        {
          "internalType": "uint256",
          "name": "_id",
          "type": "uint256"
        }
      ],
      "name": "contestShipment",
      "outputs": [],
      "stateMutability": "nonpayable",
      "type": "function"
    }
  ],
  "bytecode": "0x60806040523480156200001157600080fd5b506040518060400160405280601181526020017f57696e654e6f74426c6f636b636861696e0000000000000000000000000000008152506040518060400160405280600381526020017f574242000000000000000000000000000000000000000000000000000000000081525081600090816200008f9190620005e3565b508060019081620000a19190620005e3565b505050620000c4620000b86200029b60201b60201c565b620002a360201b60201c565b60096040518060a001604052803373ffffffffffffffffffffffffffffffffffffffff1681526020016040518060400160405280600781526020017f47454e455349530000000000000000000000000000000000000000000000000081525081526020016040518060400160405280600781526020017f47454e45534953000000000000000000000000000000000000000000000000008152508152602001600081526020016000815250908060018154018082558091505060019003906000526020600020906005020160009091909190915060008201518160000160006101000a81548173ffffffffffffffffffffffffffffffffffffffff021916908373ffffffffffffffffffffffffffffffffffffffff1602179055506020820151816001019081620001f69190620005e3565b5060408201518160020190816200020e9190620005e3565b5060608201518160030155608082015181600401555050600a6040518060400160405280600081526020016000151581525090806001815401808255809150506001900390600052602060002090600202016000909190919091506000820151816000015560208201518160010160006101000a81548160ff0219169083151502179055505050620006ca565b600033905090565b6000600760009054906101000a900473ffffffffffffffffffffffffffffffffffffffff16905081600760006101000a81548173ffffffffffffffffffffffffffffffffffffffff021916908373ffffffffffffffffffffffffffffffffffffffff1602179055508173ffffffffffffffffffffffffffffffffffffffff168173ffffffffffffffffffffffffffffffffffffffff167f8be0079c531659141344cd1fd0a4f28419497f9722a3daafe3b4186f6b6457e060405160405180910390a35050565b600081519050919050565b7f4e487b7100000000000000000000000000000000000000000000000000000000600052604160045260246000fd5b7f4e487b7100000000000000000000000000000000000000000000000000000000600052602260045260246000fd5b60006002820490506001821680620003eb57607f821691505b602082108103620004015762000400620003a3565b5b50919050565b60008190508160005260206000209050919050565b60006020601f8301049050919050565b600082821b905092915050565b6000600883026200046b7fffffffffffffffffffffffffffffffffffffffffffffffffffffffffffffffff826200042c565b6200047786836200042c565b95508019841693508086168417925050509392505050565b6000819050919050565b6000819050919050565b6000620004c4620004be620004b8846200048f565b62000499565b6200048f565b9050919050565b6000819050919050565b620004e083620004a3565b620004f8620004ef82620004cb565b84845462000439565b825550505050565b600090565b6200050f62000500565b6200051c818484620004d5565b505050565b5b8181101562000544576200053860008262000505565b60018101905062000522565b5050565b601f82111562000593576200055d8162000407565b62000568846200041c565b8101602085101562000578578190505b6200059062000587856200041c565b83018262000521565b50505b505050565b600082821c905092915050565b6000620005b86000198460080262000598565b1980831691505092915050565b6000620005d38383620005a5565b9150826002028217905092915050565b620005ee8262000369565b67ffffffffffffffff8111156200060a576200060962000374565b5b620006168254620003d2565b6200062382828562000548565b600060209050601f8311600181146200065b576000841562000646578287015190505b620006528582620005c5565b865550620006c2565b601f1984166200066b8662000407565b60005b8281101562000695578489015182556001820191506020850194506020810190506200066e565b86831015620006b55784890151620006b1601f891682620005a5565b8355505b6001600288020188555050505b505050505050565b615b4280620006da6000396000f3fe6080604052600436106102035760003560e01c8063842f6ccf11610118578063b88d4fde116100a0578063e985e9c51161006f578063e985e9c5146107cc578063f2fde38b14610809578063f856563914610832578063f9f8904a1461085b578063fd84cb971461088457610203565b8063b88d4fde1461071f578063bcc46e8314610748578063c4e41b2214610764578063c87b56dd1461078f57610203565b80639724d533116100e75780639724d53314610623578063a22cb46514610660578063aa30f74214610689578063b004d1ae146106c6578063b314fac21461070357610203565b8063842f6ccf146105535780638da5cb5b14610590578063934b5d13146105bb57806395d89b41146105f857610203565b806342842e0e1161019b5780636eedc78b1161016a5780636eedc78b1461047057806370a08231146104ad578063715018a6146104ea5780637373aed31461050157806382f1f7151461052a57610203565b806342842e0e1461039057806344124998146103b95780636352211e146103f6578063654ed7141461043357610203565b8063095ea7b3116101d7578063095ea7b3146102d657806323b872dd146102ff5780633040d7b6146103285780634257aa0f1461036557610203565b8062939fc31461020857806301ffc9a71461023157806306fdde031461026e578063081812fc14610299575b600080fd5b34801561021457600080fd5b5061022f600480360381019061022a9190613a3d565b6108ad565b005b34801561023d57600080fd5b5061025860048036038101906102539190613ad5565b610aaa565b6040516102659190613b1d565b60405180910390f35b34801561027a57600080fd5b50610283610b8c565b6040516102909190613bc8565b60405180910390f35b3480156102a557600080fd5b506102c060048036038101906102bb9190613bea565b610c1e565b6040516102cd9190613c58565b60405180910390f35b3480156102e257600080fd5b506102fd60048036038101906102f89190613c9f565b610c64565b005b34801561030b57600080fd5b5061032660048036038101906103219190613cdf565b610d7b565b005b34801561033457600080fd5b5061034f600480360381019061034a9190613d97565b610ddb565b60405161035c9190613e82565b60405180910390f35b34801561037157600080fd5b5061037a61114d565b6040516103879190613e82565b60405180910390f35b34801561039c57600080fd5b506103b760048036038101906103b29190613cdf565b61115d565b005b3480156103c557600080fd5b506103e060048036038101906103db9190613bea565b61117d565b6040516103ed9190613eea565b60405180910390f35b34801561040257600080fd5b5061041d60048036038101906104189190613bea565b61122a565b60405161042a9190613c58565b60405180910390f35b34801561043f57600080fd5b5061045a60048036038101906104559190613f05565b6112b0565b6040516104679190613b1d565b60405180910390f35b34801561047c57600080fd5b5061049760048036038101906104929190613bea565b611306565b6040516104a49190613fa9565b60405180910390f35b3480156104b957600080fd5b506104d460048036038101906104cf9190613f05565b61137c565b6040516104e19190613e82565b60405180910390f35b3480156104f657600080fd5b506104ff611433565b005b34801561050d57600080fd5b5061052860048036038101906105239190613f05565b611447565b005b34801561053657600080fd5b50610551600480360381019061054c9190613bea565b6114e4565b005b34801561055f57600080fd5b5061057a60048036038101906105759190613bea565b611638565b60405161058791906140d7565b60405180910390f35b34801561059c57600080fd5b506105a56117b6565b6040516105b29190613c58565b60405180910390f35b3480156105c757600080fd5b506105e260048036038101906105dd9190613bea565b6117e0565b6040516105ef9190613e82565b60405180910390f35b34801561060457600080fd5b5061060d611849565b60405161061a9190613bc8565b60405180910390f35b34801561062f57600080fd5b5061064a60048036038101906106459190613bea565b6118db565b60405161065791906141c0565b60405180910390f35b34801561066c57600080fd5b506106876004803603810190610682919061420e565b611af1565b005b34801561069557600080fd5b506106b060048036038101906106ab9190613bea565b611b07565b6040516106bd9190613bc8565b60405180910390f35b3480156106d257600080fd5b506106ed60048036038101906106e89190613bea565b611b65565b6040516106fa9190613c58565b60405180910390f35b61071d60048036038101906107189190613bea565b611b77565b005b34801561072b57600080fd5b506107466004803603810190610741919061437e565b611dc6565b005b610762600480360381019061075d9190613bea565b611e28565b005b34801561077057600080fd5b506107796120a1565b6040516107869190613e82565b60405180910390f35b34801561079b57600080fd5b506107b660048036038101906107b19190613bea565b6120ba565b6040516107c39190613bc8565b60405180910390f35b3480156107d857600080fd5b506107f360048036038101906107ee9190614401565b6121cc565b6040516108009190613b1d565b60405180910390f35b34801561081557600080fd5b50610830600480360381019061082b9190613f05565b612260565b005b34801561083e57600080fd5b5061085960048036038101906108549190613bea565b6122e3565b005b34801561086757600080fd5b50610882600480360381019061087d9190613f05565b6124a6565b005b34801561089057600080fd5b506108ab60048036038101906108a69190613bea565b612543565b005b3373ffffffffffffffffffffffffffffffffffffffff166108cd8361122a565b73ffffffffffffffffffffffffffffffffffffffff1614610923576040517f08c379a000000000000000000000000000000000000000000000000000000000815260040161091a906144b3565b60405180910390fd5b60008111610966576040517f08c379a000000000000000000000000000000000000000000000000000000000815260040161095d9061451f565b60405180910390fd5b6000600581111561097a57610979613f32565b5b600f600084815260200190815260200160002060009054906101000a900460ff1660058111156109ad576109ac613f32565b5b146109ed576040517f08c379a00000000000000000000000000000000000000000000000000000000081526004016109e4906145d7565b60405180910390fd5b6000670de0b6b3a764000082610a039190614626565b9050604051806040016040528082815260200160011515815250600a8481548110610a3157610a30614668565b5b90600052602060002090600202016000820151816000015560208201518160010160006101000a81548160ff0219169083151502179055509050507f4bdb2e7916cf9e18e46c21d169ade77868f90e8e38830774a41a4f66ce192edd8382604051610a9d929190614697565b60405180910390a1505050565b60007f80ac58cd000000000000000000000000000000000000000000000000000000007bffffffffffffffffffffffffffffffffffffffffffffffffffffffff1916827bffffffffffffffffffffffffffffffffffffffffffffffffffffffff19161480610b7557507f5b5e139f000000000000000000000000000000000000000000000000000000007bffffffffffffffffffffffffffffffffffffffffffffffffffffffff1916827bffffffffffffffffffffffffffffffffffffffffffffffffffffffff1916145b80610b855750610b848261284e565b5b9050919050565b606060008054610b9b906146ef565b80601f0160208091040260200160405190810160405280929190818152602001828054610bc7906146ef565b8015610c145780601f10610be957610100808354040283529160200191610c14565b820191906000526020600020905b815481529060010190602001808311610bf757829003601f168201915b5050505050905090565b6000610c29826128b8565b6004600083815260200190815260200160002060009054906101000a900473ffffffffffffffffffffffffffffffffffffffff169050919050565b6000610c6f8261122a565b90508073ffffffffffffffffffffffffffffffffffffffff168373ffffffffffffffffffffffffffffffffffffffff1603610cdf576040517f08c379a0000000000000000000000000000000000000000000000000000000008152600401610cd690614792565b60405180910390fd5b8073ffffffffffffffffffffffffffffffffffffffff16610cfe612903565b73ffffffffffffffffffffffffffffffffffffffff161480610d2d5750610d2c81610d27612903565b6121cc565b5b610d6c576040517f08c379a0000000000000000000000000000000000000000000000000000000008152600401610d6390614824565b60405180910390fd5b610d76838361290b565b505050565b610d8c610d86612903565b826129c4565b610dcb576040517f08c379a0000000000000000000000000000000000000000000000000000000008152600401610dc2906148b6565b60405180910390fd5b610dd6838383612a59565b505050565b6000600b60003373ffffffffffffffffffffffffffffffffffffffff1673ffffffffffffffffffffffffffffffffffffffff16815260200190815260200160002060009054906101000a900460ff16610e69576040517f08c379a0000000000000000000000000000000000000000000000000000000008152600401610e6090614948565b60405180910390fd5b6000339050610e786008612d52565b6000610e846008612d68565b905060096040518060a001604052808473ffffffffffffffffffffffffffffffffffffffff1681526020018d8d8080601f016020809104026020016040519081016040528093929190818152602001838380828437600081840152601f19601f8201169050808301925050505050505081526020018b8b8080601f016020809104026020016040519081016040528093929190818152602001838380828437600081840152601f19601f82011690508083019250505050505050815260200189815260200188815250908060018154018082558091505060019003906000526020600020906005020160009091909190915060008201518160000160006101000a81548173ffffffffffffffffffffffffffffffffffffffff021916908373ffffffffffffffffffffffffffffffffffffffff1602179055506020820151816001019081610fd29190614b14565b506040820151816002019081610fe89190614b14565b5060608201518160030155608082015181600401555050600a6040518060400160405280600081526020016000151581525090806001815401808255809150506001900390600052602060002090600202016000909190919091506000820151816000015560208201518160010160006101000a81548160ff02191690831515021790555050506110798282612d76565b6110c78186868080601f016020809104026020016040519081016040528093929190818152602001838380828437600081840152601f19601f82011690508083019250505050505050612d94565b6000600f600083815260200190815260200160002060006101000a81548160ff021916908360058111156110fe576110fd613f32565b5b02179055507f734a75f7af998d40ccad0b0507c7959eecc7734945c0f36a68c793df876454943382604051611134929190614be6565b60405180910390a1809250505098975050505050505050565b60006111583361137c565b905090565b61117883838360405180602001604052806000815250611dc6565b505050565b611185613992565b61118f6008612d68565b8211156111d1576040517f08c379a00000000000000000000000000000000000000000000000000000000081526004016111c890614c5b565b60405180910390fd5b600a82815481106111e5576111e4614668565b5b9060005260206000209060020201604051806040016040529081600082015481526020016001820160009054906101000a900460ff1615151515815250509050919050565b60008061123683612e01565b9050600073ffffffffffffffffffffffffffffffffffffffff168173ffffffffffffffffffffffffffffffffffffffff16036112a7576040517f08c379a000000000000000000000000000000000000000000000000000000000815260040161129e90614cc7565b60405180910390fd5b80915050919050565b6000600b60008373ffffffffffffffffffffffffffffffffffffffff1673ffffffffffffffffffffffffffffffffffffffff16815260200190815260200160002060009054906101000a900460ff169050919050565b60006113126008612d68565b821115611354576040517f08c379a000000000000000000000000000000000000000000000000000000000815260040161134b90614c5b565b60405180910390fd5b600f600083815260200190815260200160002060009054906101000a900460ff169050919050565b60008073ffffffffffffffffffffffffffffffffffffffff168273ffffffffffffffffffffffffffffffffffffffff16036113ec576040517f08c379a00000000000000000000000000000000000000000000000000000000081526004016113e390614d59565b60405180910390fd5b600360008373ffffffffffffffffffffffffffffffffffffffff1673ffffffffffffffffffffffffffffffffffffffff168152602001908152602001600020549050919050565b61143b612e3e565b6114456000612ebc565b565b61144f612e3e565b6001600b60008373ffffffffffffffffffffffffffffffffffffffff1673ffffffffffffffffffffffffffffffffffffffff16815260200190815260200160002060006101000a81548160ff0219169083151502179055507f65bcdcfac2aa3a66f7284ce4191a1351a6e87ed38159f2d60dacebc774fbfaab8160016040516114d9929190614d79565b60405180910390a150565b3373ffffffffffffffffffffffffffffffffffffffff166115048261122a565b73ffffffffffffffffffffffffffffffffffffffff161461155a576040517f08c379a0000000000000000000000000000000000000000000000000000000008152600401611551906144b3565b60405180910390fd5b6000600581111561156e5761156d613f32565b5b600f600083815260200190815260200160002060009054906101000a900460ff1660058111156115a1576115a0613f32565b5b146115e1576040517f08c379a00000000000000000000000000000000000000000000000000000000081526004016115d890614e3a565b60405180910390fd5b6001600f600083815260200190815260200160002060006101000a81548160ff0219169083600581111561161857611617613f32565b5b021790555042600e60008381526020019081526020016000208190555050565b60606116446008612d68565b821115611686576040517f08c379a000000000000000000000000000000000000000000000000000000000815260040161167d90614c5b565b60405180910390fd5b600c6000838152602001908152602001600020805480602002602001604051908101604052809291908181526020016000905b828210156117ab57838290600052602060002090600402016040518060800160405290816000820160009054906101000a900473ffffffffffffffffffffffffffffffffffffffff1673ffffffffffffffffffffffffffffffffffffffff1673ffffffffffffffffffffffffffffffffffffffff1681526020016001820160009054906101000a900473ffffffffffffffffffffffffffffffffffffffff1673ffffffffffffffffffffffffffffffffffffffff1673ffffffffffffffffffffffffffffffffffffffff16815260200160028201548152602001600382015481525050815260200190600101906116b9565b505050509050919050565b6000600760009054906101000a900473ffffffffffffffffffffffffffffffffffffffff16905090565b60006117ec6008612d68565b82111561182e576040517f08c379a000000000000000000000000000000000000000000000000000000000815260040161182590614c5b565b60405180910390fd5b600d6000838152602001908152602001600020549050919050565b606060018054611858906146ef565b80601f0160208091040260200160405190810160405280929190818152602001828054611884906146ef565b80156118d15780601f106118a6576101008083540402835291602001916118d1565b820191906000526020600020905b8154815290600101906020018083116118b457829003601f168201915b5050505050905090565b6118e36139ae565b6118ed6008612d68565b82111561192f576040517f08c379a000000000000000000000000000000000000000000000000000000000815260040161192690614c5b565b60405180910390fd5b6009828154811061194357611942614668565b5b90600052602060002090600502016040518060a00160405290816000820160009054906101000a900473ffffffffffffffffffffffffffffffffffffffff1673ffffffffffffffffffffffffffffffffffffffff1673ffffffffffffffffffffffffffffffffffffffff1681526020016001820180546119c2906146ef565b80601f01602080910402602001604051908101604052809291908181526020018280546119ee906146ef565b8015611a3b5780601f10611a1057610100808354040283529160200191611a3b565b820191906000526020600020905b815481529060010190602001808311611a1e57829003601f168201915b50505050508152602001600282018054611a54906146ef565b80601f0160208091040260200160405190810160405280929190818152602001828054611a80906146ef565b8015611acd5780601f10611aa257610100808354040283529160200191611acd565b820191906000526020600020905b815481529060010190602001808311611ab057829003601f168201915b50505050508152602001600382015481526020016004820154815250509050919050565b611b03611afc612903565b8383612f82565b5050565b6060611b136008612d68565b821115611b55576040517f08c379a0000000000000000000000000000000000000000000000000000000008152600401611b4c90614c5b565b60405180910390fd5b611b5e826120ba565b9050919050565b6000611b708261122a565b9050919050565b600a8181548110611b8b57611b8a614668565b5b906000526020600020906002020160010160009054906101000a900460ff16611be9576040517f08c379a0000000000000000000000000000000000000000000000000000000008152600401611be090614ea6565b60405180910390fd5b600a8181548110611bfd57611bfc614668565b5b9060005260206000209060020201600001543414611c50576040517f08c379a0000000000000000000000000000000000000000000000000000000008152600401611c4790614f38565b60405180910390fd5b6000611c5b8261122a565b905060003390506000600a8481548110611c7857611c77614668565b5b9060005260206000209060020201600001549050611c97838386612a59565b611ca3848484846130ee565b6000600a8581548110611cb957611cb8614668565b5b906000526020600020906002020160010160006101000a81548160ff0219169083151502179055506000600a8581548110611cf757611cf6614668565b5b90600052602060002090600202016000018190555060008373ffffffffffffffffffffffffffffffffffffffff1634604051611d3290614f89565b60006040518083038185875af1925050503d8060008114611d6f576040519150601f19603f3d011682016040523d82523d6000602084013e611d74565b606091505b5050905080611d8257600080fd5b7fd497f0fc697f096a336b043cbf435e567ee5bc8e921fc2d6f0a6e2e87e5aa20084848785604051611db79493929190614f9e565b60405180910390a15050505050565b611dd7611dd1612903565b836129c4565b611e16576040517f08c379a0000000000000000000000000000000000000000000000000000000008152600401611e0d906148b6565b60405180910390fd5b611e2284848484613227565b50505050565b3373ffffffffffffffffffffffffffffffffffffffff1660098281548110611e5357611e52614668565b5b906000526020600020906005020160000160009054906101000a900473ffffffffffffffffffffffffffffffffffffffff1673ffffffffffffffffffffffffffffffffffffffff1614611edb576040517f08c379a0000000000000000000000000000000000000000000000000000000008152600401611ed290615055565b60405180910390fd5b60016005811115611eef57611eee613f32565b5b600f600083815260200190815260200160002060009054906101000a900460ff166005811115611f2257611f21613f32565b5b14611f62576040517f08c379a0000000000000000000000000000000000000000000000000000000008152600401611f59906150e7565b60405180910390fd5b6000600d60008381526020019081526020016000205414611fb8576040517f08c379a0000000000000000000000000000000000000000000000000000000008152600401611faf90615153565b60405180910390fd5b6000600c6000838152602001908152602001600020600081548110611fe057611fdf614668565b5b9060005260206000209060040201600201549050600060038261200391906151a2565b905080341015612048576040517f08c379a000000000000000000000000000000000000000000000000000000000815260040161203f9061521f565b60405180910390fd5b34600d6000858152602001908152602001600020819055506002600f600085815260200190815260200160002060006101000a81548160ff0219169083600581111561209757612096613f32565b5b0217905550505050565b60006120ab612e3e565b6120b56008612d68565b905090565b60606120c5826128b8565b60006006600084815260200190815260200160002080546120e5906146ef565b80601f0160208091040260200160405190810160405280929190818152602001828054612111906146ef565b801561215e5780601f106121335761010080835404028352916020019161215e565b820191906000526020600020905b81548152906001019060200180831161214157829003601f168201915b50505050509050600061216f613283565b905060008151036121845781925050506121c7565b6000825111156121b95780826040516020016121a192919061527b565b604051602081830303815290604052925050506121c7565b6121c28461329a565b925050505b919050565b6000600560008473ffffffffffffffffffffffffffffffffffffffff1673ffffffffffffffffffffffffffffffffffffffff16815260200190815260200160002060008373ffffffffffffffffffffffffffffffffffffffff1673ffffffffffffffffffffffffffffffffffffffff16815260200190815260200160002060009054906101000a900460ff16905092915050565b612268612e3e565b600073ffffffffffffffffffffffffffffffffffffffff168173ffffffffffffffffffffffffffffffffffffffff16036122d7576040517f08c379a00000000000000000000000000000000000000000000000000000000081526004016122ce90615311565b60405180910390fd5b6122e081612ebc565b50565b3373ffffffffffffffffffffffffffffffffffffffff166123038261122a565b73ffffffffffffffffffffffffffffffffffffffff1614612359576040517f08c379a0000000000000000000000000000000000000000000000000000000008152600401612350906144b3565b60405180910390fd5b6004600581111561236d5761236c613f32565b5b600f600083815260200190815260200160002060009054906101000a900460ff1660058111156123a05761239f613f32565b5b036123e0576040517f08c379a00000000000000000000000000000000000000000000000000000000081526004016123d7906153a3565b60405180910390fd5b600360058111156123f4576123f3613f32565b5b600f600083815260200190815260200160002060009054906101000a900460ff16600581111561242757612426613f32565b5b03612467576040517f08c379a000000000000000000000000000000000000000000000000000000000815260040161245e90615435565b60405180910390fd5b6004600f600083815260200190815260200160002060006101000a81548160ff0219169083600581111561249e5761249d613f32565b5b021790555050565b6124ae612e3e565b6000600b60008373ffffffffffffffffffffffffffffffffffffffff1673ffffffffffffffffffffffffffffffffffffffff16815260200190815260200160002060006101000a81548160ff0219169083151502179055507f65bcdcfac2aa3a66f7284ce4191a1351a6e87ed38159f2d60dacebc774fbfaab816000604051612538929190614d79565b60405180910390a150565b3373ffffffffffffffffffffffffffffffffffffffff166125638261122a565b73ffffffffffffffffffffffffffffffffffffffff16146125b9576040517f08c379a00000000000000000000000000000000000000000000000000000000081526004016125b0906144b3565b60405180910390fd5b6000600d6000838152602001908152602001600020541161260f576040517f08c379a0000000000000000000000000000000000000000000000000000000008152600401612606906154c7565b60405180910390fd5b6002600581111561262357612622613f32565b5b600f600083815260200190815260200160002060009054906101000a900460ff16600581111561265657612655613f32565b5b14806126a657506004600581111561267157612670613f32565b5b600f600083815260200190815260200160002060009054906101000a900460ff1660058111156126a4576126a3613f32565b5b145b6126e5576040517f08c379a00000000000000000000000000000000000000000000000000000000081526004016126dc9061557f565b60405180910390fd5b6000600982815481106126fb576126fa614668565b5b906000526020600020906005020160000160009054906101000a900473ffffffffffffffffffffffffffffffffffffffff1690506000600d60008481526020019081526020016000205490506000600d60008581526020019081526020016000208190555060008273ffffffffffffffffffffffffffffffffffffffff168260405161278690614f89565b60006040518083038185875af1925050503d80600081146127c3576040519150601f19603f3d011682016040523d82523d6000602084013e6127c8565b606091505b505090508061280c576040517f08c379a000000000000000000000000000000000000000000000000000000000815260040161280390615611565b60405180910390fd5b6003600f600086815260200190815260200160002060006101000a81548160ff0219169083600581111561284357612842613f32565b5b021790555050505050565b60007f01ffc9a7000000000000000000000000000000000000000000000000000000007bffffffffffffffffffffffffffffffffffffffffffffffffffffffff1916827bffffffffffffffffffffffffffffffffffffffffffffffffffffffff1916149050919050565b6128c181613302565b612900576040517f08c379a00000000000000000000000000000000000000000000000000000000081526004016128f790614cc7565b60405180910390fd5b50565b600033905090565b816004600083815260200190815260200160002060006101000a81548173ffffffffffffffffffffffffffffffffffffffff021916908373ffffffffffffffffffffffffffffffffffffffff160217905550808273ffffffffffffffffffffffffffffffffffffffff1661297e8361122a565b73ffffffffffffffffffffffffffffffffffffffff167f8c5be1e5ebec7d5bd14f71427d1e84f3dd0314c0f7b2291e5b200ac8c7c3b92560405160405180910390a45050565b6000806129d08361122a565b90508073ffffffffffffffffffffffffffffffffffffffff168473ffffffffffffffffffffffffffffffffffffffff161480612a125750612a1181856121cc565b5b80612a5057508373ffffffffffffffffffffffffffffffffffffffff16612a3884610c1e565b73ffffffffffffffffffffffffffffffffffffffff16145b91505092915050565b8273ffffffffffffffffffffffffffffffffffffffff16612a798261122a565b73ffffffffffffffffffffffffffffffffffffffff1614612acf576040517f08c379a0000000000000000000000000000000000000000000000000000000008152600401612ac6906156a3565b60405180910390fd5b600073ffffffffffffffffffffffffffffffffffffffff168273ffffffffffffffffffffffffffffffffffffffff1603612b3e576040517f08c379a0000000000000000000000000000000000000000000000000000000008152600401612b3590615735565b60405180910390fd5b612b4b8383836001613343565b8273ffffffffffffffffffffffffffffffffffffffff16612b6b8261122a565b73ffffffffffffffffffffffffffffffffffffffff1614612bc1576040517f08c379a0000000000000000000000000000000000000000000000000000000008152600401612bb8906156a3565b60405180910390fd5b6004600082815260200190815260200160002060006101000a81549073ffffffffffffffffffffffffffffffffffffffff02191690556001600360008573ffffffffffffffffffffffffffffffffffffffff1673ffffffffffffffffffffffffffffffffffffffff168152602001908152602001600020600082825403925050819055506001600360008473ffffffffffffffffffffffffffffffffffffffff1673ffffffffffffffffffffffffffffffffffffffff16815260200190815260200160002060008282540192505081905550816002600083815260200190815260200160002060006101000a81548173ffffffffffffffffffffffffffffffffffffffff021916908373ffffffffffffffffffffffffffffffffffffffff160217905550808273ffffffffffffffffffffffffffffffffffffffff168473ffffffffffffffffffffffffffffffffffffffff167fddf252ad1be2c89b69c2b068fc378daa952ba7f163c4a11628f55a4df523b3ef60405160405180910390a4612d4d8383836001613349565b505050565b6001816000016000828254019250508190555050565b600081600001549050919050565b612d9082826040518060200160405280600081525061334f565b5050565b612d9d82613302565b612ddc576040517f08c379a0000000000000000000000000000000000000000000000000000000008152600401612dd3906157c7565b60405180910390fd5b80600660008481526020019081526020016000209081612dfc9190614b14565b505050565b60006002600083815260200190815260200160002060009054906101000a900473ffffffffffffffffffffffffffffffffffffffff169050919050565b612e46612903565b73ffffffffffffffffffffffffffffffffffffffff16612e646117b6565b73ffffffffffffffffffffffffffffffffffffffff1614612eba576040517f08c379a0000000000000000000000000000000000000000000000000000000008152600401612eb190615833565b60405180910390fd5b565b6000600760009054906101000a900473ffffffffffffffffffffffffffffffffffffffff16905081600760006101000a81548173ffffffffffffffffffffffffffffffffffffffff021916908373ffffffffffffffffffffffffffffffffffffffff1602179055508173ffffffffffffffffffffffffffffffffffffffff168173ffffffffffffffffffffffffffffffffffffffff167f8be0079c531659141344cd1fd0a4f28419497f9722a3daafe3b4186f6b6457e060405160405180910390a35050565b8173ffffffffffffffffffffffffffffffffffffffff168373ffffffffffffffffffffffffffffffffffffffff1603612ff0576040517f08c379a0000000000000000000000000000000000000000000000000000000008152600401612fe79061589f565b60405180910390fd5b80600560008573ffffffffffffffffffffffffffffffffffffffff1673ffffffffffffffffffffffffffffffffffffffff16815260200190815260200160002060008473ffffffffffffffffffffffffffffffffffffffff1673ffffffffffffffffffffffffffffffffffffffff16815260200190815260200160002060006101000a81548160ff0219169083151502179055508173ffffffffffffffffffffffffffffffffffffffff168373ffffffffffffffffffffffffffffffffffffffff167f17307eab39ab6107e8899845ad3d59bd9653f200f220920489ca2b5937696c31836040516130e19190613b1d565b60405180910390a3505050565b600060405180608001604052808573ffffffffffffffffffffffffffffffffffffffff1681526020018473ffffffffffffffffffffffffffffffffffffffff168152602001838152602001428152509050600c600086815260200190815260200160002081908060018154018082558091505060019003906000526020600020906004020160009091909190915060008201518160000160006101000a81548173ffffffffffffffffffffffffffffffffffffffff021916908373ffffffffffffffffffffffffffffffffffffffff16021790555060208201518160010160006101000a81548173ffffffffffffffffffffffffffffffffffffffff021916908373ffffffffffffffffffffffffffffffffffffffff160217905550604082015181600201556060820151816003015550505050505050565b613232848484612a59565b61323e848484846133aa565b61327d576040517f08c379a000000000000000000000000000000000000000000000000000000000815260040161327490615931565b60405180910390fd5b50505050565b606060405180602001604052806000815250905090565b60606132a5826128b8565b60006132af613283565b905060008151116132cf57604051806020016040528060008152506132fa565b806132d984613531565b6040516020016132ea92919061527b565b6040516020818303038152906040525b915050919050565b60008073ffffffffffffffffffffffffffffffffffffffff1661332483612e01565b73ffffffffffffffffffffffffffffffffffffffff1614159050919050565b50505050565b50505050565b61335983836135ff565b61336660008484846133aa565b6133a5576040517f08c379a000000000000000000000000000000000000000000000000000000000815260040161339c90615931565b60405180910390fd5b505050565b60006133cb8473ffffffffffffffffffffffffffffffffffffffff1661381c565b15613524578373ffffffffffffffffffffffffffffffffffffffff1663150b7a026133f4612903565b8786866040518563ffffffff1660e01b815260040161341694939291906159a6565b6020604051808303816000875af192505050801561345257506040513d601f19601f8201168201806040525081019061344f9190615a07565b60015b6134d4573d8060008114613482576040519150601f19603f3d011682016040523d82523d6000602084013e613487565b606091505b5060008151036134cc576040517f08c379a00000000000000000000000000000000000000000000000000000000081526004016134c390615931565b60405180910390fd5b805181602001fd5b63150b7a0260e01b7bffffffffffffffffffffffffffffffffffffffffffffffffffffffff1916817bffffffffffffffffffffffffffffffffffffffffffffffffffffffff191614915050613529565b600190505b949350505050565b6060600060016135408461383f565b01905060008167ffffffffffffffff81111561355f5761355e614253565b5b6040519080825280601f01601f1916602001820160405280156135915781602001600182028036833780820191505090505b509050600082602001820190505b6001156135f4578080600190039150507f3031323334353637383961626364656600000000000000000000000000000000600a86061a8153600a85816135e8576135e7615173565b5b0494506000850361359f575b819350505050919050565b600073ffffffffffffffffffffffffffffffffffffffff168273ffffffffffffffffffffffffffffffffffffffff160361366e576040517f08c379a000000000000000000000000000000000000000000000000000000000815260040161366590615a80565b60405180910390fd5b61367781613302565b156136b7576040517f08c379a00000000000000000000000000000000000000000000000000000000081526004016136ae90615aec565b60405180910390fd5b6136c5600083836001613343565b6136ce81613302565b1561370e576040517f08c379a000000000000000000000000000000000000000000000000000000000815260040161370590615aec565b60405180910390fd5b6001600360008473ffffffffffffffffffffffffffffffffffffffff1673ffffffffffffffffffffffffffffffffffffffff16815260200190815260200160002060008282540192505081905550816002600083815260200190815260200160002060006101000a81548173ffffffffffffffffffffffffffffffffffffffff021916908373ffffffffffffffffffffffffffffffffffffffff160217905550808273ffffffffffffffffffffffffffffffffffffffff16600073ffffffffffffffffffffffffffffffffffffffff167fddf252ad1be2c89b69c2b068fc378daa952ba7f163c4a11628f55a4df523b3ef60405160405180910390a4613818600083836001613349565b5050565b6000808273ffffffffffffffffffffffffffffffffffffffff163b119050919050565b600080600090507a184f03e93ff9f4daa797ed6e38ed64bf6a1f010000000000000000831061389d577a184f03e93ff9f4daa797ed6e38ed64bf6a1f010000000000000000838161389357613892615173565b5b0492506040810190505b6d04ee2d6d415b85acef810000000083106138da576d04ee2d6d415b85acef810000000083816138d0576138cf615173565b5b0492506020810190505b662386f26fc10000831061390957662386f26fc1000083816138ff576138fe615173565b5b0492506010810190505b6305f5e1008310613932576305f5e100838161392857613927615173565b5b0492506008810190505b612710831061395757612710838161394d5761394c615173565b5b0492506004810190505b6064831061397a57606483816139705761396f615173565b5b0492506002810190505b600a8310613989576001810190505b80915050919050565b6040518060400160405280600081526020016000151581525090565b6040518060a00160405280600073ffffffffffffffffffffffffffffffffffffffff168152602001606081526020016060815260200160008152602001600081525090565b6000604051905090565b600080fd5b600080fd5b6000819050919050565b613a1a81613a07565b8114613a2557600080fd5b50565b600081359050613a3781613a11565b92915050565b60008060408385031215613a5457613a536139fd565b5b6000613a6285828601613a28565b9250506020613a7385828601613a28565b9150509250929050565b60007fffffffff0000000000000000000000000000000000000000000000000000000082169050919050565b613ab281613a7d565b8114613abd57600080fd5b50565b600081359050613acf81613aa9565b92915050565b600060208284031215613aeb57613aea6139fd565b5b6000613af984828501613ac0565b91505092915050565b60008115159050919050565b613b1781613b02565b82525050565b6000602082019050613b326000830184613b0e565b92915050565b600081519050919050565b600082825260208201905092915050565b60005b83811015613b72578082015181840152602081019050613b57565b60008484015250505050565b6000601f19601f8301169050919050565b6000613b9a82613b38565b613ba48185613b43565b9350613bb4818560208601613b54565b613bbd81613b7e565b840191505092915050565b60006020820190508181036000830152613be28184613b8f565b905092915050565b600060208284031215613c0057613bff6139fd565b5b6000613c0e84828501613a28565b91505092915050565b600073ffffffffffffffffffffffffffffffffffffffff82169050919050565b6000613c4282613c17565b9050919050565b613c5281613c37565b82525050565b6000602082019050613c6d6000830184613c49565b92915050565b613c7c81613c37565b8114613c8757600080fd5b50565b600081359050613c9981613c73565b92915050565b60008060408385031215613cb657613cb56139fd565b5b6000613cc485828601613c8a565b9250506020613cd585828601613a28565b9150509250929050565b600080600060608486031215613cf857613cf76139fd565b5b6000613d0686828701613c8a565b9350506020613d1786828701613c8a565b9250506040613d2886828701613a28565b9150509250925092565b600080fd5b600080fd5b600080fd5b60008083601f840112613d5757613d56613d32565b5b8235905067ffffffffffffffff811115613d7457613d73613d37565b5b602083019150836001820283011115613d9057613d8f613d3c565b5b9250929050565b60008060008060008060008060a0898b031215613db757613db66139fd565b5b600089013567ffffffffffffffff811115613dd557613dd4613a02565b5b613de18b828c01613d41565b9850985050602089013567ffffffffffffffff811115613e0457613e03613a02565b5b613e108b828c01613d41565b96509650506040613e238b828c01613a28565b9450506060613e348b828c01613a28565b935050608089013567ffffffffffffffff811115613e5557613e54613a02565b5b613e618b828c01613d41565b92509250509295985092959890939650565b613e7c81613a07565b82525050565b6000602082019050613e976000830184613e73565b92915050565b613ea681613a07565b82525050565b613eb581613b02565b82525050565b604082016000820151613ed16000850182613e9d565b506020820151613ee46020850182613eac565b50505050565b6000604082019050613eff6000830184613ebb565b92915050565b600060208284031215613f1b57613f1a6139fd565b5b6000613f2984828501613c8a565b91505092915050565b7f4e487b7100000000000000000000000000000000000000000000000000000000600052602160045260246000fd5b60068110613f7257613f71613f32565b5b50565b6000819050613f8382613f61565b919050565b6000613f9382613f75565b9050919050565b613fa381613f88565b82525050565b6000602082019050613fbe6000830184613f9a565b92915050565b600081519050919050565b600082825260208201905092915050565b6000819050602082019050919050565b613ff981613c37565b82525050565b6080820160008201516140156000850182613ff0565b5060208201516140286020850182613ff0565b50604082015161403b6040850182613e9d565b50606082015161404e6060850182613e9d565b50505050565b60006140608383613fff565b60808301905092915050565b6000602082019050919050565b600061408482613fc4565b61408e8185613fcf565b935061409983613fe0565b8060005b838110156140ca5781516140b18882614054565b97506140bc8361406c565b92505060018101905061409d565b5085935050505092915050565b600060208201905081810360008301526140f18184614079565b905092915050565b600082825260208201905092915050565b600061411582613b38565b61411f81856140f9565b935061412f818560208601613b54565b61413881613b7e565b840191505092915050565b600060a08301600083015161415b6000860182613ff0565b5060208301518482036020860152614173828261410a565b9150506040830151848203604086015261418d828261410a565b91505060608301516141a26060860182613e9d565b5060808301516141b56080860182613e9d565b508091505092915050565b600060208201905081810360008301526141da8184614143565b905092915050565b6141eb81613b02565b81146141f657600080fd5b50565b600081359050614208816141e2565b92915050565b60008060408385031215614225576142246139fd565b5b600061423385828601613c8a565b9250506020614244858286016141f9565b9150509250929050565b600080fd5b7f4e487b7100000000000000000000000000000000000000000000000000000000600052604160045260246000fd5b61428b82613b7e565b810181811067ffffffffffffffff821117156142aa576142a9614253565b5b80604052505050565b60006142bd6139f3565b90506142c98282614282565b919050565b600067ffffffffffffffff8211156142e9576142e8614253565b5b6142f282613b7e565b9050602081019050919050565b82818337600083830152505050565b600061432161431c846142ce565b6142b3565b90508281526020810184848401111561433d5761433c61424e565b5b6143488482856142ff565b509392505050565b600082601f83011261436557614364613d32565b5b813561437584826020860161430e565b91505092915050565b60008060008060808587031215614398576143976139fd565b5b60006143a687828801613c8a565b94505060206143b787828801613c8a565b93505060406143c887828801613a28565b925050606085013567ffffffffffffffff8111156143e9576143e8613a02565b5b6143f587828801614350565b91505092959194509250565b60008060408385031215614418576144176139fd565b5b600061442685828601613c8a565b925050602061443785828601613c8a565b9150509250929050565b7f596f7520617265206e6f7420746865206f776e6572206f66207468697320576960008201527f6e65426f74746c65000000000000000000000000000000000000000000000000602082015250565b600061449d602883613b43565b91506144a882614441565b604082019050919050565b600060208201905081810360008301526144cc81614490565b9050919050565b7f5072696365206d7573742062652067726561746572207468616e207a65726f00600082015250565b6000614509601f83613b43565b9150614514826144d3565b602082019050919050565b60006020820190508181036000830152614538816144fc565b9050919050565b7f5468697320626f74746c6520686173206265656e2061736b656420666f72207360008201527f68697070696e67206f7220697320696e206120646966666572656e742073746160208201527f7465000000000000000000000000000000000000000000000000000000000000604082015250565b60006145c1604283613b43565b91506145cc8261453f565b606082019050919050565b600060208201905081810360008301526145f0816145b4565b9050919050565b7f4e487b7100000000000000000000000000000000000000000000000000000000600052601160045260246000fd5b600061463182613a07565b915061463c83613a07565b925082820261464a81613a07565b91508282048414831517614661576146606145f7565b5b5092915050565b7f4e487b7100000000000000000000000000000000000000000000000000000000600052603260045260246000fd5b60006040820190506146ac6000830185613e73565b6146b96020830184613e73565b9392505050565b7f4e487b7100000000000000000000000000000000000000000000000000000000600052602260045260246000fd5b6000600282049050600182168061470757607f821691505b60208210810361471a576147196146c0565b5b50919050565b7f4552433732313a20617070726f76616c20746f2063757272656e74206f776e6560008201527f7200000000000000000000000000000000000000000000000000000000000000602082015250565b600061477c602183613b43565b915061478782614720565b604082019050919050565b600060208201905081810360008301526147ab8161476f565b9050919050565b7f4552433732313a20617070726f76652063616c6c6572206973206e6f7420746f60008201527f6b656e206f776e6572206f7220617070726f76656420666f7220616c6c000000602082015250565b600061480e603d83613b43565b9150614819826147b2565b604082019050919050565b6000602082019050818103600083015261483d81614801565b9050919050565b7f4552433732313a2063616c6c6572206973206e6f7420746f6b656e206f776e6560008201527f72206f7220617070726f76656400000000000000000000000000000000000000602082015250565b60006148a0602d83613b43565b91506148ab82614844565b604082019050919050565b600060208201905081810360008301526148cf81614893565b9050919050565b7f596f7520617265206e6f7420612077686974656c69737465642070726f64756360008201527f6572000000000000000000000000000000000000000000000000000000000000602082015250565b6000614932602283613b43565b915061493d826148d6565b604082019050919050565b6000602082019050818103600083015261496181614925565b9050919050565b60008190508160005260206000209050919050565b60006020601f8301049050919050565b600082821b905092915050565b6000600883026149ca7fffffffffffffffffffffffffffffffffffffffffffffffffffffffffffffffff8261498d565b6149d4868361498d565b95508019841693508086168417925050509392505050565b6000819050919050565b6000614a11614a0c614a0784613a07565b6149ec565b613a07565b9050919050565b6000819050919050565b614a2b836149f6565b614a3f614a3782614a18565b84845461499a565b825550505050565b600090565b614a54614a47565b614a5f818484614a22565b505050565b5b81811015614a8357614a78600082614a4c565b600181019050614a65565b5050565b601f821115614ac857614a9981614968565b614aa28461497d565b81016020851015614ab1578190505b614ac5614abd8561497d565b830182614a64565b50505b505050565b600082821c905092915050565b6000614aeb60001984600802614acd565b1980831691505092915050565b6000614b048383614ada565b9150826002028217905092915050565b614b1d82613b38565b67ffffffffffffffff811115614b3657614b35614253565b5b614b4082546146ef565b614b4b828285614a87565b600060209050601f831160018114614b7e5760008415614b6c578287015190505b614b768582614af8565b865550614bde565b601f198416614b8c86614968565b60005b82811015614bb457848901518255600182019150602085019450602081019050614b8f565b86831015614bd15784890151614bcd601f891682614ada565b8355505b6001600288020188555050505b505050505050565b6000604082019050614bfb6000830185613c49565b614c086020830184613e73565b9392505050565b7f7468697320696420646f6573206e6f7420657869737400000000000000000000600082015250565b6000614c45601683613b43565b9150614c5082614c0f565b602082019050919050565b60006020820190508181036000830152614c7481614c38565b9050919050565b7f4552433732313a20696e76616c696420746f6b656e2049440000000000000000600082015250565b6000614cb1601883613b43565b9150614cbc82614c7b565b602082019050919050565b60006020820190508181036000830152614ce081614ca4565b9050919050565b7f4552433732313a2061646472657373207a65726f206973206e6f74206120766160008201527f6c6964206f776e65720000000000000000000000000000000000000000000000602082015250565b6000614d43602983613b43565b9150614d4e82614ce7565b604082019050919050565b60006020820190508181036000830152614d7281614d36565b9050919050565b6000604082019050614d8e6000830185613c49565b614d9b6020830184613b0e565b9392505050565b7f5468697320626f74746c652068617320616c7265616479206265656e2061736b60008201527f656420666f72207368697070696e67206f7220697320696e206120646966666560208201527f72656e7420737461746500000000000000000000000000000000000000000000604082015250565b6000614e24604a83613b43565b9150614e2f82614da2565b606082019050919050565b60006020820190508181036000830152614e5381614e17565b9050919050565b7f5468697320626f74746c65206973206e6f7420666f722073616c650000000000600082015250565b6000614e90601b83613b43565b9150614e9b82614e5a565b602082019050919050565b60006020820190508181036000830152614ebf81614e83565b9050919050565b7f5468652073656e7420616d6f756e7420646f6573206e6f74206d61746368207460008201527f686520626f74746c6520707269636520696e2057656900000000000000000000602082015250565b6000614f22603683613b43565b9150614f2d82614ec6565b604082019050919050565b60006020820190508181036000830152614f5181614f15565b9050919050565b600081905092915050565b50565b6000614f73600083614f58565b9150614f7e82614f63565b600082019050919050565b6000614f9482614f66565b9150819050919050565b6000608082019050614fb36000830187613c49565b614fc06020830186613c49565b614fcd6040830185613e73565b614fda6060830184613e73565b95945050505050565b7f596f7520617265206e6f74207468652070726f6475636572206f66207468697360008201527f2057696e65426f74746c65000000000000000000000000000000000000000000602082015250565b600061503f602b83613b43565b915061504a82614fe3565b604082019050919050565b6000602082019050818103600083015261506e81615032565b9050919050565b7f5468697320626f74746c652068617320616c7265616479206265656e2073686960008201527f70706564206f7220697320696e206120646966666572656e7420737461746500602082015250565b60006150d1603f83613b43565b91506150dc82615075565b604082019050919050565b60006020820190508181036000830152615100816150c4565b9050919050565b7f436f6c6c61746572616c20616c72656164792061646465640000000000000000600082015250565b600061513d601883613b43565b915061514882615107565b602082019050919050565b6000602082019050818103600083015261516c81615130565b9050919050565b7f4e487b7100000000000000000000000000000000000000000000000000000000600052601260045260246000fd5b60006151ad82613a07565b91506151b883613a07565b9250826151c8576151c7615173565b5b828204905092915050565b7f436f6c6c61746572616c20616d6f756e74206e6f742073756666696369656e74600082015250565b6000615209602083613b43565b9150615214826151d3565b602082019050919050565b60006020820190508181036000830152615238816151fc565b9050919050565b600081905092915050565b600061525582613b38565b61525f818561523f565b935061526f818560208601613b54565b80840191505092915050565b6000615287828561524a565b9150615293828461524a565b91508190509392505050565b7f4f776e61626c653a206e6577206f776e657220697320746865207a65726f206160008201527f6464726573730000000000000000000000000000000000000000000000000000602082015250565b60006152fb602683613b43565b91506153068261529f565b604082019050919050565b6000602082019050818103600083015261532a816152ee565b9050919050565b7f5468697320626f74746c652068617320616c7265616479206265656e20636f6e60008201527f7465737465640000000000000000000000000000000000000000000000000000602082015250565b600061538d602683613b43565b915061539882615331565b604082019050919050565b600060208201905081810360008301526153bc81615380565b9050919050565b7f5468697320626f74746c652068617320616c7265616479206265656e2072656360008201527f6569766564000000000000000000000000000000000000000000000000000000602082015250565b600061541f602583613b43565b915061542a826153c3565b604082019050919050565b6000602082019050818103600083015261544e81615412565b9050919050565b7f436f6c6c61746572616c20686173206e6f74206265656e20616464656420627960008201527f207468652070726f647563657200000000000000000000000000000000000000602082015250565b60006154b1602d83613b43565b91506154bc82615455565b604082019050919050565b600060208201905081810360008301526154e0816154a4565b9050919050565b7f54686520736869706d656e742068617320616c7265616479206265656e20636f60008201527f6e6669726d6564206f7220697320696e206120646966666572656e742073746160208201527f7465000000000000000000000000000000000000000000000000000000000000604082015250565b6000615569604283613b43565b9150615574826154e7565b606082019050919050565b600060208201905081810360008301526155988161555c565b9050919050565b7f4661696c656420746f2073656e64206261636b2074686520636f6c6c6174657260008201527f616c20746f2070726f6475636572000000000000000000000000000000000000602082015250565b60006155fb602e83613b43565b91506156068261559f565b604082019050919050565b6000602082019050818103600083015261562a816155ee565b9050919050565b7f4552433732313a207472616e736665722066726f6d20696e636f72726563742060008201527f6f776e6572000000000000000000000000000000000000000000000000000000602082015250565b600061568d602583613b43565b915061569882615631565b604082019050919050565b600060208201905081810360008301526156bc81615680565b9050919050565b7f4552433732313a207472616e7366657220746f20746865207a65726f2061646460008201527f7265737300000000000000000000000000000000000000000000000000000000602082015250565b600061571f602483613b43565b915061572a826156c3565b604082019050919050565b6000602082019050818103600083015261574e81615712565b9050919050565b7f45524337323155524953746f726167653a2055524920736574206f66206e6f6e60008201527f6578697374656e7420746f6b656e000000000000000000000000000000000000602082015250565b60006157b1602e83613b43565b91506157bc82615755565b604082019050919050565b600060208201905081810360008301526157e0816157a4565b9050919050565b7f4f776e61626c653a2063616c6c6572206973206e6f7420746865206f776e6572600082015250565b600061581d602083613b43565b9150615828826157e7565b602082019050919050565b6000602082019050818103600083015261584c81615810565b9050919050565b7f4552433732313a20617070726f766520746f2063616c6c657200000000000000600082015250565b6000615889601983613b43565b915061589482615853565b602082019050919050565b600060208201905081810360008301526158b88161587c565b9050919050565b7f4552433732313a207472616e7366657220746f206e6f6e20455243373231526560008201527f63656976657220696d706c656d656e7465720000000000000000000000000000602082015250565b600061591b603283613b43565b9150615926826158bf565b604082019050919050565b6000602082019050818103600083015261594a8161590e565b9050919050565b600081519050919050565b600082825260208201905092915050565b600061597882615951565b615982818561595c565b9350615992818560208601613b54565b61599b81613b7e565b840191505092915050565b60006080820190506159bb6000830187613c49565b6159c86020830186613c49565b6159d56040830185613e73565b81810360608301526159e7818461596d565b905095945050505050565b600081519050615a0181613aa9565b92915050565b600060208284031215615a1d57615a1c6139fd565b5b6000615a2b848285016159f2565b91505092915050565b7f4552433732313a206d696e7420746f20746865207a65726f2061646472657373600082015250565b6000615a6a602083613b43565b9150615a7582615a34565b602082019050919050565b60006020820190508181036000830152615a9981615a5d565b9050919050565b7f4552433732313a20746f6b656e20616c7265616479206d696e74656400000000600082015250565b6000615ad6601c83613b43565b9150615ae182615aa0565b602082019050919050565b60006020820190508181036000830152615b0581615ac9565b905091905056fea2646970667358221220761f9c18cbd64b1fffa1859925eb6a328393a2a95a170761f88f9c55396d976264736f6c63430008120033",
  "immutableReferences": {},
  "source": "// SPDX-License-Identifier: MIT\npragma solidity 0.8.18;\n \nimport \"@openzeppelin/contracts/token/ERC721/ERC721.sol\";\nimport \"@openzeppelin/contracts/token/ERC721/extensions/ERC721URIStorage.sol\";\nimport \"@openzeppelin/contracts/utils/Counters.sol\";\nimport \"@openzeppelin/contracts/access/Ownable.sol\";\n\n\n/// @author Lo MARQUAND, Alyra, Promo SATOSHI\n/// @title The Alyra Final Project which is named the WineNotBlockhain Marketplace\n \ncontract WineNotBlockchain is ERC721URIStorage, Ownable {\n\n    using Counters for Counters.Counter;\n    Counters.Counter private _tokenId; \n \n      struct WineBottle{\n        address producer;\n        string producerName;\n        string designationOfOrigin;\n        uint vintage;\n        uint serialNumber;\n      }\n\n    struct SaleInfo {\n      uint256 price;\n      bool onSale;\n}\n\n    struct Sale {\n      address seller;\n      address buyer;\n      uint256 price;\n      uint256 timestamp;\n  }\n\n  enum bottleStatus {minted, askedForShipping, shipped, received, contested, lost } //rajouter lost et grer la partie contested ? \n\n\n    WineBottle[] idToWineBottle;\n    SaleInfo[] idToSaleInfo;\n    mapping(address => bool) private producerWhitelist;\n    mapping(uint256 => Sale[]) private idToSales;\n    mapping(uint256 => uint256) private idToCollateral;\n    mapping(uint256 => uint256) private shipmentConfirmedTimestamps;\n    mapping(uint256 => bottleStatus) private idToBottleStatus;\n\n\n    event WhitelistedProducer(address _address, bool whitelist);\n    event BottleCreation(address _owner, uint id);\n    event BottleForSale(uint id, uint price);\n    event BottleTransfer(address from, address to, uint id, uint price);\n    \n    \n    \n    constructor() ERC721 (\"WineNotBlockchain\", \"WBB\") {\n      idToWineBottle.push(WineBottle(msg.sender,'GENESIS', 'GENESIS', 0, 0));\n      idToSaleInfo.push(SaleInfo(0,false));\n    }\n\n\n// ::::::::::::: GETTERS ::::::::::::: //\n \n\n    /// Return the number of NFT created\n    /// @dev return the current value of the tokenId\n  function getTotalSupply() public view onlyOwner returns (uint256) {\n    return _tokenId.current();\n  }\n\n    /// Return the number of NFT owned by the sender\n    /// @dev return the balance of the sender\n  function getBottlesBalance() public view returns (uint) {\n    return balanceOf(msg.sender);\n  }\n\n    /// Return info about a Bottle\n    /// @param _id the Id of a existing Bottle\n    /// @dev return the Bottle struct information \n  function getBottleInfo(uint256 _id) public view returns (WineBottle memory) {\n    require (_id<=_tokenId.current(), \"this id does not exist\");\n    return (idToWineBottle[_id]);\n }\n\n     /// Return the Status of the Bottle\n    /// @param _id the Id of a existing Bottle\n    /// @dev return the enum value associated to the Id\n  function getBottleStatus(uint256 _id) public view returns (bottleStatus) {\n    require (_id<=_tokenId.current(), \"this id does not exist\");\n    return (idToBottleStatus[_id]);\n }\n\n    /// Return info about a Bottle Image\n    /// @param _id the Id of a existing Bottle\n    /// @dev return the token URI uploaded on IPFS\n   function getBottleURI(uint256 _id) public view returns (string memory) {\n    require (_id<=_tokenId.current(), \"this id does not exist\");\n    return tokenURI(_id);\n    }\n\n    /// Return the Owner of a Bottle\n    /// @param _id the Id of a existing Bottle\n    /// @dev return the address of the Owner of a Bottle\n  function getBottleOwner(uint256 _id) public view returns (address) {\n    return ownerOf(_id);\n  }\n\n    /// Return the current sale status of a Bottle\n    /// @param _id the Id of a existing Bottle\n    /// @dev return the price and the bool OnSale on a struct\n  function getBottleSaleInfo(uint256 _id) public view returns (SaleInfo memory) {\n    require (_id<=_tokenId.current(), \"this id does not exist\");\n    return (idToSaleInfo[_id]);\n }\n\n    /// Return all the Sales of a Bottle\n    /// @param _id the Id of a existing Bottle\n    /// @dev return an array of a struct Sales\n  function getSalesHistory(uint256 _id) public view returns (Sale[] memory) {\n    require(_id <= _tokenId.current(), \"this id does not exist\");\n    return idToSales[_id];\n}\n\n\n    /// Return all the Sales of a Bottle\n    /// @param _id the Id of a existing Bottle\n    /// @dev return an array of a struct Sales\n  function getCollateralInfo(uint256 _id) public view returns (uint) {\n    require(_id <= _tokenId.current(), \"this id does not exist\");\n    return(idToCollateral[_id]);\n}\n\n\n\n// ::::::::::::: REGISTRATION OF PRODUCERS ::::::::::::: // \n\n    /// Whistelist a producer\n    /// @param _producer the address of a producer\n    /// @dev add the producer to a whitelist thanks to a bool value\n    function whitelistProducer(address _producer) external onlyOwner {\n      producerWhitelist[_producer] = true;\n      emit WhitelistedProducer(_producer,true);\n}\n\n    /// Delete a producer from the whitelist\n    /// @param _producer the address of a producer\n    /// @dev delete the producer to a whitelist thanks to a bool value\n    function revokeProducer(address _producer) external onlyOwner {\n      producerWhitelist[_producer] = false;\n      emit WhitelistedProducer(_producer,false);\n\n}\n\n    /// Check if a producer is whitelisted\n    /// @param _producer the address of a producer\n    /// @dev check the producer address thanks to a bool value\n    function isWhitelistedProducer(address _producer) external view returns (bool) {\n        return producerWhitelist[_producer];\n    }\n\n\n\n// ::::::::::::: MINT OF BOTTLES ::::::::::::: // \n\n \n\n  /// A producer can mint a Bottle\n  /// @param _producerName, _designationOfOrigin,_vintage,_serialNumber,_tokenURI All the info about a Bottle\n  /// @dev a producer can mint a ERC721 of one of his Bottles\n  function mintWineBottle (\n      string calldata _producerName,\n      string calldata _designationOfOrigin,\n      uint _vintage,\n      uint _serialNumber,\n      string calldata _tokenURI\n    )\n      external returns (uint)\n    {\n      require(producerWhitelist[msg.sender], \"You are not a whitelisted producer\");\n\n      address _producer = msg.sender;\n      _tokenId.increment();\n      uint newItemId = _tokenId.current();\n      idToWineBottle.push(WineBottle(_producer,_producerName, _designationOfOrigin, _vintage, _serialNumber));\n      idToSaleInfo.push(SaleInfo(0,false));\n      _safeMint(_producer, newItemId);\n      _setTokenURI(newItemId, _tokenURI);\n      idToBottleStatus[newItemId] = bottleStatus.minted;\n      emit BottleCreation(msg.sender,newItemId);\n      return newItemId;\n    }\n\n\n\n// ::::::::::::: BUY AND SELL BOTTLES ::::::::::::: // \n\n\n  /// Record a Sale of a Bottle \n  /// @param _id,_seller,_buyer,_price all the Info about a sale\n  /// @dev push a Sale Struct in a array\n  function recordSale(uint256 _id, address _seller, address _buyer, uint256 _price) internal {\n    Sale memory sale = Sale(_seller, _buyer, _price, block.timestamp);\n    idToSales[_id].push(sale);\n}\n\n  /// Sell a Bottle\n  /// @param _id Id of the Bottle, _priceInEther Price in Ether\n  /// @dev The owner of the ERC721 can sell it on the marketplace\n  function sellBottle(uint256 _id, uint256 _priceInEther) public {\n    require(ownerOf(_id) == msg.sender, \"You are not the owner of this WineBottle\");\n    require(_priceInEther > 0, \"Price must be greater than zero\");\n    require(idToBottleStatus[_id] == bottleStatus.minted, \"This bottle has been asked for shipping or is in a different state\");\n\n\n    uint256 _priceInWei = _priceInEther * 1 ether; \n    idToSaleInfo[_id] = SaleInfo(_priceInWei, true);\n\n    emit BottleForSale(_id, _priceInWei);\n}\n\n  /// Buy a Bottle that is for sales\n  /// @param _id the Id of the Bottle\n  /// @dev a Buyer can buy a ERC721 that is for sales\n  function buyBottle(uint256 _id) public payable {\n    require(idToSaleInfo[_id].onSale, \"This bottle is not for sale\");\n    require(msg.value == idToSaleInfo[_id].price, \"The sent amount does not match the bottle price in Wei\");\n\n    address _seller = ownerOf(_id);\n    address _buyer = msg.sender;\n    uint256 _price = idToSaleInfo[_id].price;\n\n    _transfer(_seller, _buyer, _id);\n    recordSale(_id,_seller,_buyer,_price);\n\n    idToSaleInfo[_id].onSale = false;    \n    idToSaleInfo[_id].price = 0;\n\n    (bool success, ) = _seller.call{value:msg.value}(\"\");\n    require(success);\n\n    emit BottleTransfer(_seller,_buyer,_id, _price);\n}\n\n\n\n// ::::::::::::: SHIPMENT ::::::::::::: // \n\n  /// The owner of a WineBottle would like to drink or receive his bottle and he indicates the producer to ship his bottle\n  /// We suppose that there is a way to communicate with the producer through a dedicated message app (to send him his shipping address for example)\n  /// @param _id the Id of the Bottle\n  /// @dev change the status of the Bottle to follow the shipment and indicates the timestamp of the transaction\n  function indicateShipmentToProducer(uint256 _id) external {\n      require(ownerOf(_id) == msg.sender, \"You are not the owner of this WineBottle\");\n      require(idToBottleStatus[_id] == bottleStatus.minted, \"This bottle has already been asked for shipping or is in a different state\");\n\n    \n      idToBottleStatus[_id] = bottleStatus.askedForShipping;\n      shipmentConfirmedTimestamps[_id] = block.timestamp;\n\n  }\n\n\n  /// The producer has to add a Collateral when the owner of one of his bottles would like to receive the bottle. It is a safety measure to protect the buyer.\n  /// @param _id the Id of the Bottle\n  /// @dev change the status of the Bottle to follow the shipment\n  function addCollateral(uint256 _id) external payable {\n    require(idToWineBottle[_id].producer == msg.sender, \"You are not the producer of this WineBottle\");\n    require(idToBottleStatus[_id] == bottleStatus.askedForShipping, \"This bottle has already been shipped or is in a different state\");\n    require(idToCollateral[_id] == 0, \"Collateral already added\");\n\n    //the collateral has to be equal to minimum 1/3 of the initial price of the bottle \n    uint  amount = idToSales[_id][0].price;\n    uint minCollateral = amount / 3 ;\n\n    require(msg.value >= minCollateral, \"Collateral amount not sufficient\");\n\n    idToCollateral[_id] = msg.value;\n    idToBottleStatus[_id] = bottleStatus.shipped;\n\n}\n\n\n  /// The owner of a WineBottle confirms that he has received the Bottle at his home. It will release the collateral\n  /// @param _id the Id of the Bottle\n  /// @dev change the status of the Bottle to follow the shipment \n  function confirmDelivery(uint256 _id) external {\n    require(ownerOf(_id) == msg.sender, \"You are not the owner of this WineBottle\");\n    require(idToCollateral[_id] > 0, \"Collateral has not been added by the producer\");\n    require(idToBottleStatus[_id] == bottleStatus.shipped || idToBottleStatus[_id] == bottleStatus.contested, \"The shipment has already been confirmed or is in a different state\");\n\n    address payable producer = payable(idToWineBottle[_id].producer);\n    uint256 collateral = idToCollateral[_id];\n    idToCollateral[_id] = 0;\n    (bool success, ) = producer.call{value: collateral}(\"\");\n    require(success, \"Failed to send back the collateral to producer\");\n\n    idToBottleStatus[_id] = bottleStatus.received;\n\n\n}\n\n\n  /// The owner of a WineBottle can contest the Shipment if he did not receive the Bottle. WineNotBlockchain will handle the issue with the producer.\n  /// Once the issue is solved, the owner can confirm the delivery.\n  /// @param _id the Id of the Bottle\n  /// @dev change the status of the Bottle to follow the shipment \n  function contestShipment(uint256 _id) public {\n    require(ownerOf(_id) == msg.sender, \"You are not the owner of this WineBottle\");\n    require(idToBottleStatus[_id] != bottleStatus.contested, \"This bottle has already been contested\");\n    require(idToBottleStatus[_id] != bottleStatus.received, \"This bottle has already been received\");\n\n    idToBottleStatus[_id] = bottleStatus.contested;\n\n}\n\n\n}",
  "sourcePath": "/home/leomrqd/Satoshi/WineNotBlockchain/truffle/contracts/WineNotBlockchain.sol",
  "compiler": {
    "name": "solc",
    "version": "0.8.18+commit.87f61d96.Emscripten.clang"
  },
  "schemaVersion": "3.4.11",
  "updatedAt": "2023-03-25T16:24:23.717Z",
  "networkType": "ethereum",
  "devdoc": {
    "author": "Lo MARQUAND, Alyra, Promo SATOSHI",
    "events": {
      "Approval(address,address,uint256)": {
        "details": "Emitted when `owner` enables `approved` to manage the `tokenId` token."
      },
      "ApprovalForAll(address,address,bool)": {
        "details": "Emitted when `owner` enables or disables (`approved`) `operator` to manage all of its assets."
      },
      "Transfer(address,address,uint256)": {
        "details": "Emitted when `tokenId` token is transferred from `from` to `to`."
      }
    },
    "kind": "dev",
    "methods": {
      "addCollateral(uint256)": {
        "details": "change the status of the Bottle to follow the shipment",
        "params": {
          "_id": "the Id of the Bottle"
        }
      },
      "approve(address,uint256)": {
        "details": "See {IERC721-approve}."
      },
      "balanceOf(address)": {
        "details": "See {IERC721-balanceOf}."
      },
      "buyBottle(uint256)": {
        "details": "a Buyer can buy a ERC721 that is for sales",
        "params": {
          "_id": "the Id of the Bottle"
        }
      },
      "confirmDelivery(uint256)": {
        "details": "change the status of the Bottle to follow the shipment ",
        "params": {
          "_id": "the Id of the Bottle"
        }
      },
      "contestShipment(uint256)": {
        "details": "change the status of the Bottle to follow the shipment ",
        "params": {
          "_id": "the Id of the Bottle"
        }
      },
      "getApproved(uint256)": {
        "details": "See {IERC721-getApproved}."
      },
      "getBottleInfo(uint256)": {
        "details": "return the Bottle struct information ",
        "params": {
          "_id": "the Id of a existing Bottle"
        }
      },
      "getBottleOwner(uint256)": {
        "details": "return the address of the Owner of a Bottle",
        "params": {
          "_id": "the Id of a existing Bottle"
        }
      },
      "getBottleSaleInfo(uint256)": {
        "details": "return the price and the bool OnSale on a struct",
        "params": {
          "_id": "the Id of a existing Bottle"
        }
      },
      "getBottleStatus(uint256)": {
        "details": "return the enum value associated to the Id",
        "params": {
          "_id": "the Id of a existing Bottle"
        }
      },
      "getBottleURI(uint256)": {
        "details": "return the token URI uploaded on IPFS",
        "params": {
          "_id": "the Id of a existing Bottle"
        }
      },
      "getBottlesBalance()": {
        "details": "return the balance of the sender"
      },
      "getCollateralInfo(uint256)": {
        "details": "return an array of a struct Sales",
        "params": {
          "_id": "the Id of a existing Bottle"
        }
      },
      "getSalesHistory(uint256)": {
        "details": "return an array of a struct Sales",
        "params": {
          "_id": "the Id of a existing Bottle"
        }
      },
      "getTotalSupply()": {
        "details": "return the current value of the tokenId"
      },
      "indicateShipmentToProducer(uint256)": {
        "details": "change the status of the Bottle to follow the shipment and indicates the timestamp of the transaction",
        "params": {
          "_id": "the Id of the Bottle"
        }
      },
      "isApprovedForAll(address,address)": {
        "details": "See {IERC721-isApprovedForAll}."
      },
      "isWhitelistedProducer(address)": {
        "details": "check the producer address thanks to a bool value",
        "params": {
          "_producer": "the address of a producer"
        }
      },
      "mintWineBottle(string,string,uint256,uint256,string)": {
        "details": "a producer can mint a ERC721 of one of his Bottles",
        "params": {
          "_producerName": ", _designationOfOrigin,_vintage,_serialNumber,_tokenURI All the info about a Bottle"
        }
      },
      "name()": {
        "details": "See {IERC721Metadata-name}."
      },
      "owner()": {
        "details": "Returns the address of the current owner."
      },
      "ownerOf(uint256)": {
        "details": "See {IERC721-ownerOf}."
      },
      "renounceOwnership()": {
        "details": "Leaves the contract without owner. It will not be possible to call `onlyOwner` functions anymore. Can only be called by the current owner. NOTE: Renouncing ownership will leave the contract without an owner, thereby removing any functionality that is only available to the owner."
      },
      "revokeProducer(address)": {
        "details": "delete the producer to a whitelist thanks to a bool value",
        "params": {
          "_producer": "the address of a producer"
        }
      },
      "safeTransferFrom(address,address,uint256)": {
        "details": "See {IERC721-safeTransferFrom}."
      },
      "safeTransferFrom(address,address,uint256,bytes)": {
        "details": "See {IERC721-safeTransferFrom}."
      },
      "sellBottle(uint256,uint256)": {
        "details": "The owner of the ERC721 can sell it on the marketplace",
        "params": {
          "_id": "Id of the Bottle, _priceInEther Price in Ether"
        }
      },
      "setApprovalForAll(address,bool)": {
        "details": "See {IERC721-setApprovalForAll}."
      },
      "supportsInterface(bytes4)": {
        "details": "See {IERC165-supportsInterface}."
      },
      "symbol()": {
        "details": "See {IERC721Metadata-symbol}."
      },
      "tokenURI(uint256)": {
        "details": "See {IERC721Metadata-tokenURI}."
      },
      "transferFrom(address,address,uint256)": {
        "details": "See {IERC721-transferFrom}."
      },
      "transferOwnership(address)": {
        "details": "Transfers ownership of the contract to a new account (`newOwner`). Can only be called by the current owner."
      },
      "whitelistProducer(address)": {
        "details": "add the producer to a whitelist thanks to a bool value",
        "params": {
          "_producer": "the address of a producer"
        }
      }
    },
    "title": "The Alyra Final Project which is named the WineNotBlockhain Marketplace",
    "version": 1
  },
  "userdoc": {
    "kind": "user",
    "methods": {
      "addCollateral(uint256)": {
        "notice": "The producer has to add a Collateral when the owner of one of his bottles would like to receive the bottle. It is a safety measure to protect the buyer."
      },
      "buyBottle(uint256)": {
        "notice": "Buy a Bottle that is for sales"
      },
      "confirmDelivery(uint256)": {
        "notice": "The owner of a WineBottle confirms that he has received the Bottle at his home. It will release the collateral"
      },
      "contestShipment(uint256)": {
        "notice": "The owner of a WineBottle can contest the Shipment if he did not receive the Bottle. WineNotBlockchain will handle the issue with the producer. Once the issue is solved, the owner can confirm the delivery."
      },
      "getBottleInfo(uint256)": {
        "notice": "Return info about a Bottle"
      },
      "getBottleOwner(uint256)": {
        "notice": "Return the Owner of a Bottle"
      },
      "getBottleSaleInfo(uint256)": {
        "notice": "Return the current sale status of a Bottle"
      },
      "getBottleStatus(uint256)": {
        "notice": "Return the Status of the Bottle"
      },
      "getBottleURI(uint256)": {
        "notice": "Return info about a Bottle Image"
      },
      "getBottlesBalance()": {
        "notice": "Return the number of NFT owned by the sender"
      },
      "getCollateralInfo(uint256)": {
        "notice": "Return all the Sales of a Bottle"
      },
      "getSalesHistory(uint256)": {
        "notice": "Return all the Sales of a Bottle"
      },
      "getTotalSupply()": {
        "notice": "Return the number of NFT created"
      },
      "indicateShipmentToProducer(uint256)": {
        "notice": "The owner of a WineBottle would like to drink or receive his bottle and he indicates the producer to ship his bottle We suppose that there is a way to communicate with the producer through a dedicated message app (to send him his shipping address for example)"
      },
      "isWhitelistedProducer(address)": {
        "notice": "Check if a producer is whitelisted"
      },
      "mintWineBottle(string,string,uint256,uint256,string)": {
        "notice": "A producer can mint a Bottle"
      },
      "revokeProducer(address)": {
        "notice": "Delete a producer from the whitelist"
      },
      "sellBottle(uint256,uint256)": {
        "notice": "Sell a Bottle"
      },
      "whitelistProducer(address)": {
        "notice": "Whistelist a producer"
      }
    },
    "version": 1
  }
}