{
  "contractName": "WineNotBlockchain",
  "abi": [
    {
      "inputs": [],
      "stateMutability": "nonpayable",
      "type": "constructor"
    },
    {
      "anonymous": false,
      "inputs": [
        {
          "indexed": true,
          "internalType": "address",
          "name": "owner",
          "type": "address"
        },
        {
          "indexed": true,
          "internalType": "address",
          "name": "approved",
          "type": "address"
        },
        {
          "indexed": true,
          "internalType": "uint256",
          "name": "tokenId",
          "type": "uint256"
        }
      ],
      "name": "Approval",
      "type": "event"
    },
    {
      "anonymous": false,
      "inputs": [
        {
          "indexed": true,
          "internalType": "address",
          "name": "owner",
          "type": "address"
        },
        {
          "indexed": true,
          "internalType": "address",
          "name": "operator",
          "type": "address"
        },
        {
          "indexed": false,
          "internalType": "bool",
          "name": "approved",
          "type": "bool"
        }
      ],
      "name": "ApprovalForAll",
      "type": "event"
    },
    {
      "anonymous": false,
      "inputs": [
        {
          "indexed": false,
          "internalType": "uint256",
          "name": "id",
          "type": "uint256"
        },
        {
          "indexed": false,
          "internalType": "address",
          "name": "from",
          "type": "address"
        }
      ],
      "name": "BottleAskedForShipping",
      "type": "event"
    },
    {
      "anonymous": false,
      "inputs": [
        {
          "indexed": false,
          "internalType": "address",
          "name": "_owner",
          "type": "address"
        },
        {
          "indexed": false,
          "internalType": "uint256",
          "name": "id",
          "type": "uint256"
        },
        {
          "indexed": false,
          "internalType": "string",
          "name": "URI",
          "type": "string"
        }
      ],
      "name": "BottleCreation",
      "type": "event"
    },
    {
      "anonymous": false,
      "inputs": [
        {
          "indexed": false,
          "internalType": "uint256",
          "name": "id",
          "type": "uint256"
        },
        {
          "indexed": false,
          "internalType": "uint256",
          "name": "price",
          "type": "uint256"
        }
      ],
      "name": "BottleForSale",
      "type": "event"
    },
    {
      "anonymous": false,
      "inputs": [
        {
          "indexed": false,
          "internalType": "address",
          "name": "from",
          "type": "address"
        },
        {
          "indexed": false,
          "internalType": "address",
          "name": "to",
          "type": "address"
        },
        {
          "indexed": false,
          "internalType": "uint256",
          "name": "id",
          "type": "uint256"
        },
        {
          "indexed": false,
          "internalType": "uint256",
          "name": "price",
          "type": "uint256"
        }
      ],
      "name": "BottleTransfer",
      "type": "event"
    },
    {
      "anonymous": false,
      "inputs": [
        {
          "indexed": false,
          "internalType": "uint256",
          "name": "id",
          "type": "uint256"
        },
        {
          "indexed": false,
          "internalType": "address",
          "name": "from",
          "type": "address"
        },
        {
          "indexed": false,
          "internalType": "uint256",
          "name": "value",
          "type": "uint256"
        }
      ],
      "name": "CollateralAdded",
      "type": "event"
    },
    {
      "anonymous": false,
      "inputs": [
        {
          "indexed": false,
          "internalType": "uint256",
          "name": "id",
          "type": "uint256"
        },
        {
          "indexed": false,
          "internalType": "address",
          "name": "from",
          "type": "address"
        },
        {
          "indexed": false,
          "internalType": "uint256",
          "name": "value",
          "type": "uint256"
        }
      ],
      "name": "ConfirmedDelivery",
      "type": "event"
    },
    {
      "anonymous": false,
      "inputs": [
        {
          "indexed": false,
          "internalType": "uint256",
          "name": "id",
          "type": "uint256"
        },
        {
          "indexed": false,
          "internalType": "address",
          "name": "from",
          "type": "address"
        }
      ],
      "name": "ContestedDelivery",
      "type": "event"
    },
    {
      "anonymous": false,
      "inputs": [
        {
          "indexed": true,
          "internalType": "address",
          "name": "previousOwner",
          "type": "address"
        },
        {
          "indexed": true,
          "internalType": "address",
          "name": "newOwner",
          "type": "address"
        }
      ],
      "name": "OwnershipTransferred",
      "type": "event"
    },
    {
      "anonymous": false,
      "inputs": [
        {
          "indexed": true,
          "internalType": "address",
          "name": "from",
          "type": "address"
        },
        {
          "indexed": true,
          "internalType": "address",
          "name": "to",
          "type": "address"
        },
        {
          "indexed": true,
          "internalType": "uint256",
          "name": "tokenId",
          "type": "uint256"
        }
      ],
      "name": "Transfer",
      "type": "event"
    },
    {
      "anonymous": false,
      "inputs": [
        {
          "indexed": false,
          "internalType": "address",
          "name": "_address",
          "type": "address"
        },
        {
          "indexed": false,
          "internalType": "bool",
          "name": "whitelist",
          "type": "bool"
        }
      ],
      "name": "WhitelistedProducer",
      "type": "event"
    },
    {
      "inputs": [
        {
          "internalType": "address",
          "name": "to",
          "type": "address"
        },
        {
          "internalType": "uint256",
          "name": "tokenId",
          "type": "uint256"
        }
      ],
      "name": "approve",
      "outputs": [],
      "stateMutability": "nonpayable",
      "type": "function"
    },
    {
      "inputs": [
        {
          "internalType": "address",
          "name": "owner",
          "type": "address"
        }
      ],
      "name": "balanceOf",
      "outputs": [
        {
          "internalType": "uint256",
          "name": "",
          "type": "uint256"
        }
      ],
      "stateMutability": "view",
      "type": "function",
      "constant": true
    },
    {
      "inputs": [
        {
          "internalType": "uint256",
          "name": "tokenId",
          "type": "uint256"
        }
      ],
      "name": "getApproved",
      "outputs": [
        {
          "internalType": "address",
          "name": "",
          "type": "address"
        }
      ],
      "stateMutability": "view",
      "type": "function",
      "constant": true
    },
    {
      "inputs": [
        {
          "internalType": "address",
          "name": "owner",
          "type": "address"
        },
        {
          "internalType": "address",
          "name": "operator",
          "type": "address"
        }
      ],
      "name": "isApprovedForAll",
      "outputs": [
        {
          "internalType": "bool",
          "name": "",
          "type": "bool"
        }
      ],
      "stateMutability": "view",
      "type": "function",
      "constant": true
    },
    {
      "inputs": [],
      "name": "name",
      "outputs": [
        {
          "internalType": "string",
          "name": "",
          "type": "string"
        }
      ],
      "stateMutability": "view",
      "type": "function",
      "constant": true
    },
    {
      "inputs": [],
      "name": "owner",
      "outputs": [
        {
          "internalType": "address",
          "name": "",
          "type": "address"
        }
      ],
      "stateMutability": "view",
      "type": "function",
      "constant": true
    },
    {
      "inputs": [
        {
          "internalType": "uint256",
          "name": "tokenId",
          "type": "uint256"
        }
      ],
      "name": "ownerOf",
      "outputs": [
        {
          "internalType": "address",
          "name": "",
          "type": "address"
        }
      ],
      "stateMutability": "view",
      "type": "function",
      "constant": true
    },
    {
      "inputs": [],
      "name": "renounceOwnership",
      "outputs": [],
      "stateMutability": "nonpayable",
      "type": "function"
    },
    {
      "inputs": [
        {
          "internalType": "address",
          "name": "from",
          "type": "address"
        },
        {
          "internalType": "address",
          "name": "to",
          "type": "address"
        },
        {
          "internalType": "uint256",
          "name": "tokenId",
          "type": "uint256"
        }
      ],
      "name": "safeTransferFrom",
      "outputs": [],
      "stateMutability": "nonpayable",
      "type": "function"
    },
    {
      "inputs": [
        {
          "internalType": "address",
          "name": "from",
          "type": "address"
        },
        {
          "internalType": "address",
          "name": "to",
          "type": "address"
        },
        {
          "internalType": "uint256",
          "name": "tokenId",
          "type": "uint256"
        },
        {
          "internalType": "bytes",
          "name": "data",
          "type": "bytes"
        }
      ],
      "name": "safeTransferFrom",
      "outputs": [],
      "stateMutability": "nonpayable",
      "type": "function"
    },
    {
      "inputs": [
        {
          "internalType": "address",
          "name": "operator",
          "type": "address"
        },
        {
          "internalType": "bool",
          "name": "approved",
          "type": "bool"
        }
      ],
      "name": "setApprovalForAll",
      "outputs": [],
      "stateMutability": "nonpayable",
      "type": "function"
    },
    {
      "inputs": [
        {
          "internalType": "bytes4",
          "name": "interfaceId",
          "type": "bytes4"
        }
      ],
      "name": "supportsInterface",
      "outputs": [
        {
          "internalType": "bool",
          "name": "",
          "type": "bool"
        }
      ],
      "stateMutability": "view",
      "type": "function",
      "constant": true
    },
    {
      "inputs": [],
      "name": "symbol",
      "outputs": [
        {
          "internalType": "string",
          "name": "",
          "type": "string"
        }
      ],
      "stateMutability": "view",
      "type": "function",
      "constant": true
    },
    {
      "inputs": [
        {
          "internalType": "uint256",
          "name": "tokenId",
          "type": "uint256"
        }
      ],
      "name": "tokenURI",
      "outputs": [
        {
          "internalType": "string",
          "name": "",
          "type": "string"
        }
      ],
      "stateMutability": "view",
      "type": "function",
      "constant": true
    },
    {
      "inputs": [
        {
          "internalType": "address",
          "name": "from",
          "type": "address"
        },
        {
          "internalType": "address",
          "name": "to",
          "type": "address"
        },
        {
          "internalType": "uint256",
          "name": "tokenId",
          "type": "uint256"
        }
      ],
      "name": "transferFrom",
      "outputs": [],
      "stateMutability": "nonpayable",
      "type": "function"
    },
    {
      "inputs": [
        {
          "internalType": "address",
          "name": "newOwner",
          "type": "address"
        }
      ],
      "name": "transferOwnership",
      "outputs": [],
      "stateMutability": "nonpayable",
      "type": "function"
    },
    {
      "inputs": [],
      "name": "isCallerOwner",
      "outputs": [
        {
          "internalType": "bool",
          "name": "",
          "type": "bool"
        }
      ],
      "stateMutability": "view",
      "type": "function",
      "constant": true
    },
    {
      "inputs": [],
      "name": "getTotalSupply",
      "outputs": [
        {
          "internalType": "uint256",
          "name": "",
          "type": "uint256"
        }
      ],
      "stateMutability": "view",
      "type": "function",
      "constant": true
    },
    {
      "inputs": [],
      "name": "getBottlesBalance",
      "outputs": [
        {
          "internalType": "uint256",
          "name": "",
          "type": "uint256"
        }
      ],
      "stateMutability": "view",
      "type": "function",
      "constant": true
    },
    {
      "inputs": [
        {
          "internalType": "uint256",
          "name": "_id",
          "type": "uint256"
        }
      ],
      "name": "getBottleInfo",
      "outputs": [
        {
          "components": [
            {
              "internalType": "address",
              "name": "producer",
              "type": "address"
            },
            {
              "internalType": "string",
              "name": "producerName",
              "type": "string"
            },
            {
              "internalType": "string",
              "name": "designationOfOrigin",
              "type": "string"
            },
            {
              "internalType": "uint256",
              "name": "vintage",
              "type": "uint256"
            },
            {
              "internalType": "uint256",
              "name": "serialNumber",
              "type": "uint256"
            }
          ],
          "internalType": "struct WineNotBlockchain.WineBottle",
          "name": "",
          "type": "tuple"
        }
      ],
      "stateMutability": "view",
      "type": "function",
      "constant": true
    },
    {
      "inputs": [
        {
          "internalType": "uint256",
          "name": "_id",
          "type": "uint256"
        }
      ],
      "name": "getBottleStatus",
      "outputs": [
        {
          "internalType": "enum WineNotBlockchain.bottleStatus",
          "name": "",
          "type": "uint8"
        }
      ],
      "stateMutability": "view",
      "type": "function",
      "constant": true
    },
    {
      "inputs": [
        {
          "internalType": "uint256",
          "name": "_id",
          "type": "uint256"
        }
      ],
      "name": "getBottleOwner",
      "outputs": [
        {
          "internalType": "address",
          "name": "",
          "type": "address"
        }
      ],
      "stateMutability": "view",
      "type": "function",
      "constant": true
    },
    {
      "inputs": [
        {
          "internalType": "uint256",
          "name": "_id",
          "type": "uint256"
        }
      ],
      "name": "getBottleSaleInfo",
      "outputs": [
        {
          "components": [
            {
              "internalType": "uint256",
              "name": "price",
              "type": "uint256"
            },
            {
              "internalType": "bool",
              "name": "onSale",
              "type": "bool"
            }
          ],
          "internalType": "struct WineNotBlockchain.SaleInfo",
          "name": "",
          "type": "tuple"
        }
      ],
      "stateMutability": "view",
      "type": "function",
      "constant": true
    },
    {
      "inputs": [
        {
          "internalType": "uint256",
          "name": "_id",
          "type": "uint256"
        }
      ],
      "name": "getSalesHistory",
      "outputs": [
        {
          "components": [
            {
              "internalType": "address",
              "name": "seller",
              "type": "address"
            },
            {
              "internalType": "address",
              "name": "buyer",
              "type": "address"
            },
            {
              "internalType": "uint256",
              "name": "price",
              "type": "uint256"
            },
            {
              "internalType": "uint256",
              "name": "timestamp",
              "type": "uint256"
            }
          ],
          "internalType": "struct WineNotBlockchain.Sale[]",
          "name": "",
          "type": "tuple[]"
        }
      ],
      "stateMutability": "view",
      "type": "function",
      "constant": true
    },
    {
      "inputs": [
        {
          "internalType": "uint256",
          "name": "_id",
          "type": "uint256"
        }
      ],
      "name": "getCollateralInfo",
      "outputs": [
        {
          "internalType": "uint256",
          "name": "",
          "type": "uint256"
        }
      ],
      "stateMutability": "view",
      "type": "function",
      "constant": true
    },
    {
      "inputs": [
        {
          "internalType": "address",
          "name": "_producer",
          "type": "address"
        }
      ],
      "name": "whitelistProducer",
      "outputs": [],
      "stateMutability": "nonpayable",
      "type": "function"
    },
    {
      "inputs": [
        {
          "internalType": "address",
          "name": "_producer",
          "type": "address"
        }
      ],
      "name": "revokeProducer",
      "outputs": [],
      "stateMutability": "nonpayable",
      "type": "function"
    },
    {
      "inputs": [
        {
          "internalType": "address",
          "name": "_producer",
          "type": "address"
        }
      ],
      "name": "isWhitelistedProducer",
      "outputs": [
        {
          "internalType": "bool",
          "name": "",
          "type": "bool"
        }
      ],
      "stateMutability": "view",
      "type": "function",
      "constant": true
    },
    {
      "inputs": [
        {
          "internalType": "string",
          "name": "_producerName",
          "type": "string"
        },
        {
          "internalType": "string",
          "name": "_designationOfOrigin",
          "type": "string"
        },
        {
          "internalType": "uint256",
          "name": "_vintage",
          "type": "uint256"
        },
        {
          "internalType": "uint256",
          "name": "_serialNumber",
          "type": "uint256"
        },
        {
          "internalType": "string",
          "name": "_tokenURI",
          "type": "string"
        }
      ],
      "name": "mintWineBottle",
      "outputs": [
        {
          "internalType": "uint256",
          "name": "",
          "type": "uint256"
        }
      ],
      "stateMutability": "nonpayable",
      "type": "function"
    },
    {
      "inputs": [
        {
          "internalType": "uint256",
          "name": "_id",
          "type": "uint256"
        },
        {
          "internalType": "uint256",
          "name": "_priceInEther",
          "type": "uint256"
        }
      ],
      "name": "sellBottle",
      "outputs": [],
      "stateMutability": "nonpayable",
      "type": "function"
    },
    {
      "inputs": [
        {
          "internalType": "uint256",
          "name": "_id",
          "type": "uint256"
        }
      ],
      "name": "buyBottle",
      "outputs": [],
      "stateMutability": "payable",
      "type": "function",
      "payable": true
    },
    {
      "inputs": [
        {
          "internalType": "uint256",
          "name": "_id",
          "type": "uint256"
        }
      ],
      "name": "indicateShipmentToProducer",
      "outputs": [],
      "stateMutability": "nonpayable",
      "type": "function"
    },
    {
      "inputs": [
        {
          "internalType": "uint256",
          "name": "_id",
          "type": "uint256"
        }
      ],
      "name": "addCollateral",
      "outputs": [],
      "stateMutability": "payable",
      "type": "function",
      "payable": true
    },
    {
      "inputs": [
        {
          "internalType": "uint256",
          "name": "_id",
          "type": "uint256"
        }
      ],
      "name": "confirmDelivery",
      "outputs": [],
      "stateMutability": "nonpayable",
      "type": "function"
    },
    {
      "inputs": [
        {
          "internalType": "uint256",
          "name": "_id",
          "type": "uint256"
        }
      ],
      "name": "contestShipment",
      "outputs": [],
      "stateMutability": "nonpayable",
      "type": "function"
    }
  ],
  "bytecode": "0x60806040523480156200001157600080fd5b506040518060400160405280601181526020017f57696e654e6f74426c6f636b636861696e0000000000000000000000000000008152506040518060400160405280600381526020017f574242000000000000000000000000000000000000000000000000000000000081525081600090816200008f9190620003a7565b5060016200009e8282620003a7565b505050620000cd620000be6200027a640100000000026401000000009004565b6401000000006200027e810204565b6040805160a0810182523381528151808301835260078082527f47454e4553495300000000000000000000000000000000000000000000000000602080840182905280850193845285518087018752928352820152928201929092526000606082018190526080820181905260088054600181018255915281517ff3f7a9fe364faab93b216da50a3214154f22a0a2b415b23a84c8169e8b636ee360059092029182018054600160a060020a031916600160a060020a0390921691909117815592519192917ff3f7a9fe364faab93b216da50a3214154f22a0a2b415b23a84c8169e8b636ee490910190620001c39082620003a7565b5060408201516002820190620001da9082620003a7565b50606082015160038201556080909101516004909101556040805180820190915260008082526020820181815260098054600181018255925291517f6e1540171b6c0c960b71a7020d9f60077f6af931a8bbf590da0223dacf75c7af60029092029182015590517f6e1540171b6c0c960b71a7020d9f60077f6af931a8bbf590da0223dacf75c7b0909101805460ff19169115159190911790556200047a565b3390565b60068054600160a060020a03838116600160a060020a0319831681179093556040519116919082907f8be0079c531659141344cd1fd0a4f28419497f9722a3daafe3b4186f6b6457e090600090a35050565b7f4e487b7100000000000000000000000000000000000000000000000000000000600052604160045260246000fd5b6002810460018216806200031457607f821691505b6020821081036200034e577f4e487b7100000000000000000000000000000000000000000000000000000000600052602260045260246000fd5b50919050565b601f821115620003a2576000818152602081206020601f860104810160208610156200037d5750805b6020601f860104820191505b818110156200039e5782815560010162000389565b5050505b505050565b815167ffffffffffffffff811115620003c457620003c4620002d0565b620003dc81620003d58454620002ff565b8462000354565b602080601f831160018114620004185760008415620003fb5750858301515b60028086026008870290910a60001904198216178655506200039e565b600085815260208120601f198616915b82811015620004495788860151825594840194600190910190840162000428565b50858210156200046a57878501516008601f88160260020a60001904191681555b5050505050600202600101905550565b613c68806200048a6000396000f3fe608060405260043610610250576000357c010000000000000000000000000000000000000000000000000000000090048063842f6ccf11610155578063b88d4fde116100cd578063e985e9c51161009c578063f856563911610081578063f8565639146106c7578063f9f8904a146106e7578063fd84cb971461070757600080fd5b8063e985e9c51461065e578063f2fde38b146106a757600080fd5b8063b88d4fde146105f6578063bcc46e8314610616578063c4e41b2214610629578063c87b56dd1461063e57600080fd5b80639724d53311610124578063a94a1da011610109578063a94a1da0146105ae578063b004d1ae146105c3578063b314fac2146105e357600080fd5b80639724d53314610561578063a22cb4651461058e57600080fd5b8063842f6ccf146104e15780638da5cb5b1461050e578063934b5d131461052c57806395d89b411461054c57600080fd5b806342842e0e116101e85780636eedc78b116101b7578063715018a61161019c578063715018a61461048c5780637373aed3146104a157806382f1f715146104c157600080fd5b80636eedc78b1461043f57806370a082311461046c57600080fd5b806342842e0e1461038957806344124998146103a95780636352211e146103e6578063654ed7141461040657600080fd5b8063095ea7b311610224578063095ea7b31461030657806323b872dd146103265780633040d7b6146103465780634257aa0f1461037457600080fd5b8062939fc31461025557806301ffc9a71461027757806306fdde03146102ac578063081812fc146102ce575b600080fd5b34801561026157600080fd5b506102756102703660046133d1565b610727565b005b34801561028357600080fd5b50610297610292366004613421565b610985565b60405190151581526020015b60405180910390f35b3480156102b857600080fd5b506102c1610a6a565b6040516102a3919061348e565b3480156102da57600080fd5b506102ee6102e93660046134a1565b610afc565b604051600160a060020a0390911681526020016102a3565b34801561031257600080fd5b506102756103213660046134d6565b610b23565b34801561033257600080fd5b50610275610341366004613500565b610c82565b34801561035257600080fd5b50610366610361366004613585565b610d11565b6040519081526020016102a3565b34801561038057600080fd5b506103666111b9565b34801561039557600080fd5b506102756103a4366004613500565b6111c9565b3480156103b557600080fd5b506103c96103c43660046134a1565b6111e4565b6040805182518152602092830151151592810192909252016102a3565b3480156103f257600080fd5b506102ee6104013660046134a1565b61129a565b34801561041257600080fd5b50610297610421366004613632565b600160a060020a03166000908152600a602052604090205460ff1690565b34801561044b57600080fd5b5061045f61045a3660046134a1565b611307565b6040516102a3919061367c565b34801561047857600080fd5b50610366610487366004613632565b61137f565b34801561049857600080fd5b50610275611421565b3480156104ad57600080fd5b506102756104bc366004613632565b611435565b3480156104cd57600080fd5b506102756104dc3660046134a1565b61149f565b3480156104ed57600080fd5b506105016104fc3660046134a1565b61164d565b6040516102a391906136bd565b34801561051a57600080fd5b50600654600160a060020a03166102ee565b34801561053857600080fd5b506103666105473660046134a1565b611745565b34801561055857600080fd5b506102c16117ba565b34801561056d57600080fd5b5061058161057c3660046134a1565b6117c9565b6040516102a3919061372d565b34801561059a57600080fd5b506102756105a936600461379a565b6119e0565b3480156105ba57600080fd5b506102976119ef565b3480156105cf57600080fd5b506102ee6105de3660046134a1565b611a1c565b6102756105f13660046134a1565b611a87565b34801561060257600080fd5b50610275610611366004613805565b611d9a565b6102756106243660046134a1565b611e30565b34801561063557600080fd5b506103666120e4565b34801561064a57600080fd5b506102c16106593660046134a1565b6120ef565b34801561066a57600080fd5b506102976106793660046138e1565b600160a060020a03918216600090815260056020908152604080832093909416825291909152205460ff1690565b3480156106b357600080fd5b506102756106c2366004613632565b612163565b3480156106d357600080fd5b506102756106e23660046134a1565b6121fb565b3480156106f357600080fd5b50610275610702366004613632565b61241e565b34801561071357600080fd5b506102756107223660046134a1565b6124f2565b336107318361129a565b600160a060020a0316146107ba57604051600080516020613c13833981519152815260206004820152602860248201527f596f7520617265206e6f7420746865206f776e6572206f66207468697320576960448201527f6e65426f74746c6500000000000000000000000000000000000000000000000060648201526084015b60405180910390fd5b6000811161081257604051600080516020613c13833981519152815260206004820152601f60248201527f5072696365206d7573742062652067726561746572207468616e207a65726f0060448201526064016107b1565b6000828152600e602052604081205460ff1660058111156108355761083561364d565b146108d657604051600080516020613c13833981519152815260206004820152604260248201527f5468697320626f74746c6520686173206265656e2061736b656420666f72207360448201527f68697070696e67206f7220697320696e206120646966666572656e742073746160648201527f7465000000000000000000000000000000000000000000000000000000000000608482015260a4016107b1565b60006108ea82670de0b6b3a7640000613943565b9050604051806040016040528082815260200160011515815250600984815481106109175761091761395a565b6000918252602091829020835160029290920201908155918101516001909201805460ff191692151592909217909155604080518581529182018390527f4bdb2e7916cf9e18e46c21d169ade77868f90e8e38830774a41a4f66ce192edd91015b60405180910390a1505050565b60007fffffffff0000000000000000000000000000000000000000000000000000000082167f80ac58cd000000000000000000000000000000000000000000000000000000001480610a1857507fffffffff0000000000000000000000000000000000000000000000000000000082167f5b5e139f00000000000000000000000000000000000000000000000000000000145b80610a6457507f01ffc9a7000000000000000000000000000000000000000000000000000000007fffffffff000000000000000000000000000000000000000000000000000000008316145b92915050565b606060008054610a7990613989565b80601f0160208091040260200160405190810160405280929190818152602001828054610aa590613989565b8015610af25780601f10610ac757610100808354040283529160200191610af2565b820191906000526020600020905b815481529060010190602001808311610ad557829003601f168201915b5050505050905090565b6000610b078261286f565b50600090815260046020526040902054600160a060020a031690565b6000610b2e8261129a565b905080600160a060020a031683600160a060020a031603610bbf57604051600080516020613c13833981519152815260206004820152602160248201527f4552433732313a20617070726f76616c20746f2063757272656e74206f776e6560448201527f720000000000000000000000000000000000000000000000000000000000000060648201526084016107b1565b33600160a060020a0382161480610bf95750600160a060020a038116600090815260056020908152604080832033845290915290205460ff165b610c7357604051600080516020613c13833981519152815260206004820152603d60248201527f4552433732313a20617070726f76652063616c6c6572206973206e6f7420746f60448201527f6b656e206f776e6572206f7220617070726f76656420666f7220616c6c00000060648201526084016107b1565b610c7d83836128db565b505050565b610c8c3382612956565b610d0657604051600080516020613c13833981519152815260206004820152602d60248201527f4552433732313a2063616c6c6572206973206e6f7420746f6b656e206f776e6560448201527f72206f7220617070726f7665640000000000000000000000000000000000000060648201526084016107b1565b610c7d8383836129d5565b336000908152600a602052604081205460ff16610d7857604051600080516020613c13833981519152815260206004820152600660248201527f4e6f7420574c000000000000000000000000000000000000000000000000000060448201526064016107b1565b60005b600854811015610f8a57600060088281548110610d9a57610d9a61395a565b60009182526020918290206040805160a081019091526005909202018054600160a060020a031682526001810180549293919291840191610dda90613989565b80601f0160208091040260200160405190810160405280929190818152602001828054610e0690613989565b8015610e535780601f10610e2857610100808354040283529160200191610e53565b820191906000526020600020905b815481529060010190602001808311610e3657829003601f168201915b50505050508152602001600282018054610e6c90613989565b80601f0160208091040260200160405190810160405280929190818152602001828054610e9890613989565b8015610ee55780601f10610eba57610100808354040283529160200191610ee5565b820191906000526020600020905b815481529060010190602001808311610ec857829003601f168201915b5050509183525050600382015460208201526004909101546040909101528051909150600160a060020a031633148015610f225750858160800151145b15610f7757604051600080516020613c13833981519152815260206004820152600760248201527f53616d6520534e0000000000000000000000000000000000000000000000000060448201526064016107b1565b5080610f82816139dc565b915050610d7b565b5033610f9a600780546001019055565b6000610fa560075490565b905060086040518060a0016040528084600160a060020a031681526020018d8d8080601f016020809104026020016040519081016040528093929190818152602001838380828437600092019190915250505090825250604080516020601f8e018190048102820181019092528c815291810191908d908d9081908401838280828437600092018290525093855250505060208083018c905260409092018a9052835460018082018655948252908290208351600590920201805473ffffffffffffffffffffffffffffffffffffffff1916600160a060020a0390921691909117815590820151919290919082019061109e9082613a43565b50604082015160028201906110b39082613a43565b50606082015160038201556080909101516004909101556040805180820190915260008082526020820181815260098054600181018255925291517f6e1540171b6c0c960b71a7020d9f60077f6af931a8bbf590da0223dacf75c7af60029092029182015590517f6e1540171b6c0c960b71a7020d9f60077f6af931a8bbf590da0223dacf75c7b0909101805460ff19169115159190911790556111578282612c23565b6000818152600e602052604090819020805460ff19169055517fb57675a4944a6912b2eba1d0e0e710e019afc7ce91b7858c11d0111c2c8ab128906111a3903390849089908990613b09565b60405180910390a19a9950505050505050505050565b60006111c43361137f565b905090565b610c7d83838360405180602001604052806000815250611d9a565b604080518082019091526000808252602082015260075482111561125257604051600080516020613c13833981519152815260206004820152601660248201527f7468697320696420646f6573206e6f742065786973740000000000000000000060448201526064016107b1565b600982815481106112655761126561395a565b600091825260209182902060408051808201909152600290920201805482526001015460ff1615159181019190915292915050565b600081815260026020526040812054600160a060020a031680610a6457604051600080516020613c13833981519152815260206004820152601860248201527f4552433732313a20696e76616c696420746f6b656e204944000000000000000060448201526064016107b1565b600061131260075490565b82111561136957604051600080516020613c13833981519152815260206004820152601660248201527f7468697320696420646f6573206e6f742065786973740000000000000000000060448201526064016107b1565b506000908152600e602052604090205460ff1690565b6000600160a060020a03821661140557604051600080516020613c13833981519152815260206004820152602960248201527f4552433732313a2061646472657373207a65726f206973206e6f74206120766160448201527f6c6964206f776e6572000000000000000000000000000000000000000000000060648201526084016107b1565b50600160a060020a031660009081526003602052604090205490565b611429612c3d565b6114336000612c9f565b565b61143d612c3d565b600160a060020a0381166000818152600a6020908152604091829020805460ff191660019081179091558251938452908301527f65bcdcfac2aa3a66f7284ce4191a1351a6e87ed38159f2d60dacebc774fbfaab91015b60405180910390a150565b336114a98261129a565b600160a060020a03161461152d57604051600080516020613c13833981519152815260206004820152602860248201527f596f7520617265206e6f7420746865206f776e6572206f66207468697320576960448201527f6e65426f74746c6500000000000000000000000000000000000000000000000060648201526084016107b1565b6000818152600e602052604081205460ff1660058111156115505761155061364d565b146115f157604051600080516020613c13833981519152815260206004820152604a60248201527f5468697320626f74746c652068617320616c7265616479206265656e2061736b60448201527f656420666f72207368697070696e67206f7220697320696e206120646966666560648201527f72656e7420737461746500000000000000000000000000000000000000000000608482015260a4016107b1565b6000818152600e60209081526040808320805460ff19166001179055600d825291829020429055815183815233918101919091527f21c798e431f7fd7af5c0179282aa88a51eccd4512f5cd8662726c9f2984d35a99101611494565b606061165860075490565b8211156116af57604051600080516020613c13833981519152815260206004820152601660248201527f7468697320696420646f6573206e6f742065786973740000000000000000000060448201526064016107b1565b6000828152600b6020908152604080832080548251818502810185019093528083529193909284015b8282101561173a57600084815260209081902060408051608081018252600486029092018054600160a060020a0390811684526001808301549091168486015260028201549284019290925260030154606083015290835290920191016116d8565b505050509050919050565b600061175060075490565b8211156117a757604051600080516020613c13833981519152815260206004820152601660248201527f7468697320696420646f6573206e6f742065786973740000000000000000000060448201526064016107b1565b506000908152600c602052604090205490565b606060018054610a7990613989565b6118046040518060a001604052806000600160a060020a03168152602001606081526020016060815260200160008152602001600081525090565b60075482111561185e57604051600080516020613c13833981519152815260206004820152601660248201527f7468697320696420646f6573206e6f742065786973740000000000000000000060448201526064016107b1565b600882815481106118715761187161395a565b60009182526020918290206040805160a081019091526005909202018054600160a060020a0316825260018101805492939192918401916118b190613989565b80601f01602080910402602001604051908101604052809291908181526020018280546118dd90613989565b801561192a5780601f106118ff5761010080835404028352916020019161192a565b820191906000526020600020905b81548152906001019060200180831161190d57829003601f168201915b5050505050815260200160028201805461194390613989565b80601f016020809104026020016040519081016040528092919081815260200182805461196f90613989565b80156119bc5780601f10611991576101008083540402835291602001916119bc565b820191906000526020600020905b81548152906001019060200180831161199f57829003601f168201915b50505050508152602001600382015481526020016004820154815250509050919050565b6119eb338383612cfe565b5050565b6000611a03600654600160a060020a031690565b600160a060020a031633600160a060020a031614905090565b6000611a2760075490565b821115611a7e57604051600080516020613c13833981519152815260206004820152601660248201527f7468697320696420646f6573206e6f742065786973740000000000000000000060448201526064016107b1565b610a648261129a565b60098181548110611a9a57611a9a61395a565b600091825260209091206001600290920201015460ff16611b0557604051600080516020613c13833981519152815260206004820152601b60248201527f5468697320626f74746c65206973206e6f7420666f722073616c65000000000060448201526064016107b1565b60098181548110611b1857611b1861395a565b9060005260206000209060020201600001543414611ba657604051600080516020613c13833981519152815260206004820152603660248201527f5468652073656e7420616d6f756e7420646f6573206e6f74206d61746368207460448201527f686520626f74746c6520707269636520696e205765690000000000000000000060648201526084016107b1565b6000611bb18261129a565b90506000339050600060098481548110611bcd57611bcd61395a565b9060005260206000209060020201600001549050611bec8383866129d5565b60408051608081018252600160a060020a0385811682528481166020808401918252838501868152426060860190815260008b8152600b84529687208054600180820183559189529390972095516004909302909501805492851673ffffffffffffffffffffffffffffffffffffffff19938416178155925195830180549690941695909116949094179091559151600283015551600390910155600060098581548110611c9c57611c9c61395a565b60009182526020822060029190910201600101805460ff1916921515929092179091556009805486908110611cd357611cd361395a565b60009182526020822060029091020191909155604051600160a060020a0385169034908381818185875af1925050503d8060008114611d2e576040519150601f19603f3d011682016040523d82523d6000602084013e611d33565b606091505b5050905080611d4157600080fd5b60408051600160a060020a03808716825285166020820152908101869052606081018390527fd497f0fc697f096a336b043cbf435e567ee5bc8e921fc2d6f0a6e2e87e5aa2009060800160405180910390a15050505050565b611da43383612956565b611e1e57604051600080516020613c13833981519152815260206004820152602d60248201527f4552433732313a2063616c6c6572206973206e6f7420746f6b656e206f776e6560448201527f72206f7220617070726f7665640000000000000000000000000000000000000060648201526084016107b1565b611e2a84848484612dd4565b50505050565b33600160a060020a031660088281548110611e4d57611e4d61395a565b6000918252602090912060059091020154600160a060020a031614611ee257604051600080516020613c13833981519152815260206004820152602b60248201527f596f7520617265206e6f74207468652070726f6475636572206f66207468697360448201527f2057696e65426f74746c6500000000000000000000000000000000000000000060648201526084016107b1565b60016000828152600e602052604090205460ff166005811115611f0757611f0761364d565b14611f8257604051600080516020613c13833981519152815260206004820152603f60248201527f5468697320626f74746c652068617320616c7265616479206265656e2073686960448201527f70706564206f7220697320696e206120646966666572656e742073746174650060648201526084016107b1565b6000818152600c602052604090205415611fe657604051600080516020613c13833981519152815260206004820152601860248201527f436f6c6c61746572616c20616c7265616479206164646564000000000000000060448201526064016107b1565b6000818152600b60205260408120805482906120045761200461395a565b600091825260208220600260049092020101549150612024600383613b4f565b90508034101561207e57604051600080516020613c13833981519152815260206004820181905260248201527f436f6c6c61746572616c20616d6f756e74206e6f742073756666696369656e7460448201526064016107b1565b6000838152600c602090815260408083203490819055600e835292819020805460ff19166002179055805186815233928101929092528101919091527fe556f305ca4a8554562962ef2d2080ce7aed5969bca7812cfa3ef1b0f3edb72690606001610978565b60006111c460075490565b60606120fa8261286f565b600061211160408051602081019091526000815290565b90506000815111612131576040518060200160405280600081525061215c565b8061213b84612e65565b60405160200161214c929190613b8a565b6040516020818303038152906040525b9392505050565b61216b612c3d565b600160a060020a0381166121ef57604051600080516020613c13833981519152815260206004820152602660248201527f4f776e61626c653a206e6577206f776e657220697320746865207a65726f206160448201527f646472657373000000000000000000000000000000000000000000000000000060648201526084016107b1565b6121f881612c9f565b50565b336122058261129a565b600160a060020a03161461228957604051600080516020613c13833981519152815260206004820152602860248201527f596f7520617265206e6f7420746865206f776e6572206f66207468697320576960448201527f6e65426f74746c6500000000000000000000000000000000000000000000000060648201526084016107b1565b60046000828152600e602052604090205460ff1660058111156122ae576122ae61364d565b0361232957604051600080516020613c13833981519152815260206004820152602660248201527f5468697320626f74746c652068617320616c7265616479206265656e20636f6e60448201527f746573746564000000000000000000000000000000000000000000000000000060648201526084016107b1565b60036000828152600e602052604090205460ff16600581111561234e5761234e61364d565b036123c957604051600080516020613c13833981519152815260206004820152602560248201527f5468697320626f74746c652068617320616c7265616479206265656e2072656360448201527f656976656400000000000000000000000000000000000000000000000000000060648201526084016107b1565b6000818152600e6020526040902080546004919060ff19166001830217905550604080518281523360208201527fdf138e9e592bea8e8d1aa32a57656e2afea8ae7c18273e05f8a6101fd2846f309101611494565b612426612c3d565b600160a060020a0381166000908152600a602052604090205460ff16151560011461249b57604051600080516020613c13833981519152815260206004820152600f60248201527f6e6f742077686974656c6973746564000000000000000000000000000000000060448201526064016107b1565b600160a060020a0381166000818152600a60209081526040808320805460ff191690558051938452908301919091527f65bcdcfac2aa3a66f7284ce4191a1351a6e87ed38159f2d60dacebc774fbfaab9101611494565b336124fc8261129a565b600160a060020a03161461258057604051600080516020613c13833981519152815260206004820152602860248201527f596f7520617265206e6f7420746865206f776e6572206f66207468697320576960448201527f6e65426f74746c6500000000000000000000000000000000000000000000000060648201526084016107b1565b6000818152600c602052604090205461260957604051600080516020613c13833981519152815260206004820152602d60248201527f436f6c6c61746572616c20686173206e6f74206265656e20616464656420627960448201527f207468652070726f64756365720000000000000000000000000000000000000060648201526084016107b1565b60026000828152600e602052604090205460ff16600581111561262e5761262e61364d565b148061265c575060046000828152600e602052604090205460ff16600581111561265a5761265a61364d565b145b6126fc57604051600080516020613c13833981519152815260206004820152604260248201527f54686520736869706d656e742068617320616c7265616479206265656e20636f60448201527f6e6669726d6564206f7220697320696e206120646966666572656e742073746160648201527f7465000000000000000000000000000000000000000000000000000000000000608482015260a4016107b1565b6000600882815481106127115761271161395a565b6000918252602080832060059290920290910154848352600c90915260408083208054908490559051600160a060020a0390921693509190839083908381818185875af1925050503d8060008114612785576040519150601f19603f3d011682016040523d82523d6000602084013e61278a565b606091505b505090508061280957604051600080516020613c13833981519152815260206004820152602e60248201527f4661696c656420746f2073656e64206261636b2074686520636f6c6c6174657260448201527f616c20746f2070726f647563657200000000000000000000000000000000000060648201526084016107b1565b6000848152600e6020526040902080546003919060ff19166001830217905550604080518581523360208201529081018390527fb0205c52fea1563558e6896a3ff78571996a970b8ec41d1857a3f309886c84f79060600160405180910390a150505050565b600081815260026020526040902054600160a060020a03166121f857604051600080516020613c13833981519152815260206004820152601860248201527f4552433732313a20696e76616c696420746f6b656e204944000000000000000060448201526064016107b1565b6000818152600460205260409020805473ffffffffffffffffffffffffffffffffffffffff1916600160a060020a038416908117909155819061291d8261129a565b600160a060020a03167f8c5be1e5ebec7d5bd14f71427d1e84f3dd0314c0f7b2291e5b200ac8c7c3b92560405160405180910390a45050565b6000806129628361129a565b905080600160a060020a031684600160a060020a031614806129a95750600160a060020a0380821660009081526005602090815260408083209388168352929052205460ff165b806129cd575083600160a060020a03166129c284610afc565b600160a060020a0316145b949350505050565b82600160a060020a03166129e88261129a565b600160a060020a031614612a6c57604051600080516020613c13833981519152815260206004820152602560248201527f4552433732313a207472616e736665722066726f6d20696e636f72726563742060448201527f6f776e657200000000000000000000000000000000000000000000000000000060648201526084016107b1565b600160a060020a038216612aef57604051600080516020613c138339815191528152602060048201526024808201527f4552433732313a207472616e7366657220746f20746865207a65726f2061646460448201527f726573730000000000000000000000000000000000000000000000000000000060648201526084016107b1565b82600160a060020a0316612b028261129a565b600160a060020a031614612b8657604051600080516020613c13833981519152815260206004820152602560248201527f4552433732313a207472616e736665722066726f6d20696e636f72726563742060448201527f6f776e657200000000000000000000000000000000000000000000000000000060648201526084016107b1565b6000818152600460209081526040808320805473ffffffffffffffffffffffffffffffffffffffff19908116909155600160a060020a0387811680865260038552838620805460001901905590871680865283862080546001019055868652600290945282852080549092168417909155905184937fddf252ad1be2c89b69c2b068fc378daa952ba7f163c4a11628f55a4df523b3ef91a4505050565b6119eb828260405180602001604052806000815250612f05565b600654600160a060020a0316331461143357604051600080516020613c13833981519152815260206004820181905260248201527f4f776e61626c653a2063616c6c6572206973206e6f7420746865206f776e657260448201526064016107b1565b60068054600160a060020a0383811673ffffffffffffffffffffffffffffffffffffffff19831681179093556040519116919082907f8be0079c531659141344cd1fd0a4f28419497f9722a3daafe3b4186f6b6457e090600090a35050565b81600160a060020a031683600160a060020a031603612d6757604051600080516020613c13833981519152815260206004820152601960248201527f4552433732313a20617070726f766520746f2063616c6c65720000000000000060448201526064016107b1565b600160a060020a03838116600081815260056020908152604080832094871680845294825291829020805460ff191686151590811790915591519182527f17307eab39ab6107e8899845ad3d59bd9653f200f220920489ca2b5937696c31910160405180910390a3505050565b612ddf8484846129d5565b612deb84848484612f96565b611e2a57604051600080516020613c13833981519152815260206004820152603260248201527f4552433732313a207472616e7366657220746f206e6f6e20455243373231526560448201527f63656976657220696d706c656d656e746572000000000000000000000000000060648201526084016107b1565b60606000612e728361313f565b600101905060008167ffffffffffffffff811115612e9257612e926137d6565b6040519080825280601f01601f191660200182016040528015612ebc576020820181803683370190505b5090508181016020015b600019017f3031323334353637383961626364656600000000000000000000000000000000600a86061a8153600a8504945084612ec657509392505050565b612f0f8383613221565b612f1c6000848484612f96565b610c7d57604051600080516020613c13833981519152815260206004820152603260248201527f4552433732313a207472616e7366657220746f206e6f6e20455243373231526560448201527f63656976657220696d706c656d656e746572000000000000000000000000000060648201526084016107b1565b6000600160a060020a0384163b15613134576040517f150b7a02000000000000000000000000000000000000000000000000000000008152600160a060020a0385169063150b7a0290612ff3903390899088908890600401613bb9565b6020604051808303816000875af192505050801561302e575060408051601f3d908101601f1916820190925261302b91810190613bf5565b60015b6130e9573d80801561305c576040519150601f19603f3d011682016040523d82523d6000602084013e613061565b606091505b5080516000036130e157604051600080516020613c13833981519152815260206004820152603260248201527f4552433732313a207472616e7366657220746f206e6f6e20455243373231526560448201527f63656976657220696d706c656d656e746572000000000000000000000000000060648201526084016107b1565b805181602001fd5b7fffffffff00000000000000000000000000000000000000000000000000000000167f150b7a02000000000000000000000000000000000000000000000000000000001490506129cd565b506001949350505050565b6000807a184f03e93ff9f4daa797ed6e38ed64bf6a1f0100000000000000008310613188577a184f03e93ff9f4daa797ed6e38ed64bf6a1f010000000000000000830492506040015b6d04ee2d6d415b85acef810000000083106131b4576d04ee2d6d415b85acef8100000000830492506020015b662386f26fc1000083106131d257662386f26fc10000830492506010015b6305f5e10083106131ea576305f5e100830492506008015b61271083106131fe57612710830492506004015b60648310613210576064830492506002015b600a8310610a645760010192915050565b600160a060020a03821661327f57604051600080516020613c13833981519152815260206004820181905260248201527f4552433732313a206d696e7420746f20746865207a65726f206164647265737360448201526064016107b1565b600081815260026020526040902054600160a060020a0316156132ec57604051600080516020613c13833981519152815260206004820152601c60248201527f4552433732313a20746f6b656e20616c7265616479206d696e7465640000000060448201526064016107b1565b600081815260026020526040902054600160a060020a03161561335957604051600080516020613c13833981519152815260206004820152601c60248201527f4552433732313a20746f6b656e20616c7265616479206d696e7465640000000060448201526064016107b1565b600160a060020a0382166000818152600360209081526040808320805460010190558483526002909152808220805473ffffffffffffffffffffffffffffffffffffffff19168417905551839291907fddf252ad1be2c89b69c2b068fc378daa952ba7f163c4a11628f55a4df523b3ef908290a45050565b600080604083850312156133e457600080fd5b50508035926020909101359150565b7fffffffff00000000000000000000000000000000000000000000000000000000811681146121f857600080fd5b60006020828403121561343357600080fd5b813561215c816133f3565b60005b83811015613459578181015183820152602001613441565b50506000910152565b6000815180845261347a81602086016020860161343e565b601f01601f19169290920160200192915050565b60208152600061215c6020830184613462565b6000602082840312156134b357600080fd5b5035919050565b8035600160a060020a03811681146134d157600080fd5b919050565b600080604083850312156134e957600080fd5b6134f2836134ba565b946020939093013593505050565b60008060006060848603121561351557600080fd5b61351e846134ba565b925061352c602085016134ba565b9150604084013590509250925092565b60008083601f84011261354e57600080fd5b50813567ffffffffffffffff81111561356657600080fd5b60208301915083602082850101111561357e57600080fd5b9250929050565b60008060008060008060008060a0898b0312156135a157600080fd5b883567ffffffffffffffff808211156135b957600080fd5b6135c58c838d0161353c565b909a50985060208b01359150808211156135de57600080fd5b6135ea8c838d0161353c565b909850965060408b0135955060608b0135945060808b013591508082111561361157600080fd5b5061361e8b828c0161353c565b999c989b5096995094979396929594505050565b60006020828403121561364457600080fd5b61215c826134ba565b7f4e487b7100000000000000000000000000000000000000000000000000000000600052602160045260246000fd5b60208101600683106136b7577f4e487b7100000000000000000000000000000000000000000000000000000000600052602160045260246000fd5b91905290565b602080825282518282018190526000919060409081850190868401855b828110156137205781518051600160a060020a039081168652878201511687860152858101518686015260609081015190850152608090930192908501906001016136da565b5091979650505050505050565b60208152600160a060020a0382511660208201526000602083015160a0604084015261375c60c0840182613462565b90506040840151601f198483030160608501526137798282613462565b91505060608401516080840152608084015160a08401528091505092915050565b600080604083850312156137ad57600080fd5b6137b6836134ba565b9150602083013580151581146137cb57600080fd5b809150509250929050565b7f4e487b7100000000000000000000000000000000000000000000000000000000600052604160045260246000fd5b6000806000806080858703121561381b57600080fd5b613824856134ba565b9350613832602086016134ba565b925060408501359150606085013567ffffffffffffffff8082111561385657600080fd5b818701915087601f83011261386a57600080fd5b81358181111561387c5761387c6137d6565b604051601f8201601f19908116603f011681019083821181831017156138a4576138a46137d6565b816040528281528a60208487010111156138bd57600080fd5b82602086016020830137600060208483010152809550505050505092959194509250565b600080604083850312156138f457600080fd5b6138fd836134ba565b915061390b602084016134ba565b90509250929050565b7f4e487b7100000000000000000000000000000000000000000000000000000000600052601160045260246000fd5b8082028115828204841417610a6457610a64613914565b7f4e487b7100000000000000000000000000000000000000000000000000000000600052603260045260246000fd5b60028104600182168061399d57607f821691505b6020821081036139d6577f4e487b7100000000000000000000000000000000000000000000000000000000600052602260045260246000fd5b50919050565b6000600182016139ee576139ee613914565b5060010190565b601f821115610c7d576000818152602081206020601f86010481016020861015613a1c5750805b6020601f860104820191505b81811015613a3b57828155600101613a28565b505050505050565b815167ffffffffffffffff811115613a5d57613a5d6137d6565b613a7181613a6b8454613989565b846139f5565b602080601f831160018114613aaa5760008415613a8e5750858301515b60028086026008870290910a6000190419821617865550613a3b565b600085815260208120601f198616915b82811015613ad957888601518255948401946001909101908401613aba565b5085821015613af957878501516008601f88160260020a60001904191681555b5050505050600202600101905550565b600160a060020a038516815283602082015260606040820152816060820152818360808301376000818301608090810191909152601f909201601f191601019392505050565b600082613b85577f4e487b7100000000000000000000000000000000000000000000000000000000600052601260045260246000fd5b500490565b60008351613b9c81846020880161343e565b835190830190613bb081836020880161343e565b01949350505050565b6000600160a060020a03808716835280861660208401525083604083015260806060830152613beb6080830184613462565b9695505050505050565b600060208284031215613c0757600080fd5b815161215c816133f356fe08c379a000000000000000000000000000000000000000000000000000000000a264697066735822122073453f5d656801f56c6bf8f5c39d9adf684a9d6dca83dc7aa652d4e6e0358a0064736f6c63430008120033",
  "immutableReferences": {},
  "source": "// SPDX-License-Identifier: MIT\n\npragma solidity 0.8.18;\n \nimport \"@openzeppelin/contracts/token/ERC721/ERC721.sol\";\nimport \"@openzeppelin/contracts/utils/Counters.sol\";\nimport \"@openzeppelin/contracts/access/Ownable.sol\";\n\n\n/// @author Lo MARQUAND, Alyra, Promo SATOSHI\n/// @title The Alyra Final Project which is named the WineNotBlockhain Marketplace\n \ncontract WineNotBlockchain is ERC721, Ownable {\n\n    using Counters for Counters.Counter;\n    Counters.Counter private _tokenId; \n \n      struct WineBottle{\n        address producer;\n        string producerName;\n        string designationOfOrigin;\n        uint vintage;\n        uint serialNumber;\n      }\n\n    struct SaleInfo {\n      uint256 price;\n      bool onSale;\n}\n\n    struct Sale {\n      address seller;\n      address buyer;\n      uint256 price;\n      uint256 timestamp;\n  }\n\n  enum bottleStatus {minted, askedForShipping, shipped, received, contested, lost }\n\n    WineBottle[] idToWineBottle;\n    SaleInfo[] idToSaleInfo;\n\n    mapping(address => bool) private producerWhitelist;\n    mapping(uint256 => Sale[]) private idToSales;\n    mapping(uint256 => uint256) private idToCollateral;\n    mapping(uint256 => uint256) private shipmentConfirmedTimestamps;\n    mapping(uint256 => bottleStatus) private idToBottleStatus;\n\n\n    event WhitelistedProducer(address _address, bool whitelist);\n    event BottleCreation(address _owner, uint id,string URI);\n    event BottleForSale(uint id, uint price);\n    event BottleTransfer(address from, address to, uint id, uint price);\n    event BottleAskedForShipping(uint id, address from);\n    event CollateralAdded(uint id, address from, uint value);\n    event ConfirmedDelivery(uint id, address from, uint value);\n    event ContestedDelivery(uint id, address from);\n    \n\n\n\n    \n    \n    \n    constructor() ERC721 (\"WineNotBlockchain\", \"WBB\") {\n      idToWineBottle.push(WineBottle(msg.sender,'GENESIS', 'GENESIS', 0, 0));\n      idToSaleInfo.push(SaleInfo(0,false));\n    }\n\n\n// ::::::::::::: GETTERS ::::::::::::: //\n \n    /// Return true if the Owner called the function\n    /// @dev return a boolean to say if this is the Owner that called the function\n  function isCallerOwner() external view returns (bool) {\n    return (msg.sender == owner());\n  }\n\n    /// Return the number of NFT created\n    /// @dev return the current value of the tokenId\n  function getTotalSupply() external view  returns (uint256) {\n    return _tokenId.current();\n  }\n\n    /// Return the number of NFT owned by the sender\n    /// @dev return the balance of the sender\n  function getBottlesBalance() external view returns (uint) {\n    return balanceOf(msg.sender);\n  }\n\n    /// Return info about a Bottle\n    /// @param _id the Id of a existing Bottle\n    /// @dev return the Bottle struct information \n  function getBottleInfo(uint256 _id) external view returns (WineBottle memory) {\n    require (_id<=_tokenId.current(), \"this id does not exist\");\n    return (idToWineBottle[_id]);\n }\n\n     /// Return the Status of the Bottle\n    /// @param _id the Id of a existing Bottle\n    /// @dev return the enum value associated to the Id\n  function getBottleStatus(uint256 _id) external view returns (bottleStatus) {\n    require (_id<=_tokenId.current(), \"this id does not exist\");\n    return (idToBottleStatus[_id]);\n }\n\n    /// Return the Owner of a Bottle\n    /// @param _id the Id of a existing Bottle\n    /// @dev return the address of the Owner of a Bottle\n  function getBottleOwner(uint256 _id) external view returns (address) {\n    require (_id<=_tokenId.current(), \"this id does not exist\");\n    return ownerOf(_id);\n  }\n\n    /// Return the current sale status of a Bottle\n    /// @param _id the Id of a existing Bottle\n    /// @dev return the price and the bool OnSale on a struct\n  function getBottleSaleInfo(uint256 _id) external view returns (SaleInfo memory) {\n    require (_id<=_tokenId.current(), \"this id does not exist\");\n    return (idToSaleInfo[_id]);\n }\n\n    /// Return all the Sales of a Bottle\n    /// @param _id the Id of a existing Bottle\n    /// @dev return an array of a struct Sales\n  function getSalesHistory(uint256 _id) external view returns (Sale[] memory) {\n    require(_id <= _tokenId.current(), \"this id does not exist\");\n    return idToSales[_id];\n}\n\n\n    /// Return the collateral added for a Bottle \n    /// @param _id the Id of a existing Bottle\n    /// @dev return the collateral added for a Bottle and 0 if no collateral is added\n  function getCollateralInfo(uint256 _id) external view returns (uint) {\n    require(_id <= _tokenId.current(), \"this id does not exist\");\n    return(idToCollateral[_id]);\n}\n\n// ::::::::::::: REGISTRATION OF PRODUCERS ::::::::::::: // \n\n    /// Whistelist a producer\n    /// @param _producer the address of a producer\n    /// @dev add the producer to a whitelist thanks to a bool value\n    function whitelistProducer(address _producer) external onlyOwner {\n      producerWhitelist[_producer] = true;\n      emit WhitelistedProducer(_producer,true);\n}\n\n    /// Delete a producer from the whitelist\n    /// @param _producer the address of a producer\n    /// @dev delete the producer to a whitelist thanks to a bool value\n    function revokeProducer(address _producer) external onlyOwner {\n      require(producerWhitelist[_producer] == true, \"not whitelisted\");\n      producerWhitelist[_producer] = false;\n      emit WhitelistedProducer(_producer,false);\n\n}\n\n    /// Check if a producer is whitelisted\n    /// @param _producer the address of a producer\n    /// @dev check the producer address thanks to a bool value\n    function isWhitelistedProducer(address _producer) external view returns (bool) {\n        return producerWhitelist[_producer];\n    }\n\n\n\n// ::::::::::::: MINT OF BOTTLES ::::::::::::: // \n\n  /// A producer can mint a Bottle\n  /// @param _producerName, _designationOfOrigin,_vintage,_serialNumber,_tokenURI All the info about a Bottle\n  /// @dev a producer can mint a ERC721 of one of his Bottles with metadatas onchain. \n  /// @dev The token URI is linked to an image on IPFS but it is not stored on the blockchain. It is only here for display reasons.\n  /// @dev The mint allow to own a tokenId linked to metadatas on chain without proof of ownership of an image.\n  function mintWineBottle (\n      string calldata _producerName,\n      string calldata _designationOfOrigin,\n      uint _vintage,\n      uint _serialNumber,\n      string calldata _tokenURI\n    )\n      external returns (uint)\n    {\n      require(producerWhitelist[msg.sender],\"Not WL\");\n      for (uint i = 0; i < idToWineBottle.length; i++) {\n        WineBottle memory existingBottle = idToWineBottle[i];\n        if (existingBottle.producer == msg.sender && existingBottle.serialNumber == _serialNumber) { \n          revert(\"Same SN\");\n         }\n      }\n      address _producer = msg.sender;\n      _tokenId.increment(); // 1 for the first tokenId\n      uint newItemId = _tokenId.current();\n      idToWineBottle.push(WineBottle(_producer,_producerName, _designationOfOrigin, _vintage, _serialNumber)); //metadatas onchain\n      idToSaleInfo.push(SaleInfo(0,false));\n      _safeMint(_producer, newItemId);\n      idToBottleStatus[newItemId] = bottleStatus.minted;\n      emit BottleCreation(msg.sender,newItemId,_tokenURI);\n      return newItemId;\n    }\n\n// ::::::::::::: BUY AND SELL BOTTLES ::::::::::::: // \n\n  /// Record a Sale of a Bottle \n  /// @param _id,_seller,_buyer,_price all the Info about a sale\n  /// @dev push a Sale Struct in a array\n  function recordSale(uint256 _id, address _seller, address _buyer, uint256 _price) internal {\n    Sale memory sale = Sale(_seller, _buyer, _price, block.timestamp);\n    idToSales[_id].push(sale);\n}\n\n  /// Sell a Bottle\n  /// @param _id Id of the Bottle, _priceInEther Price in Ether\n  /// @dev The owner of the ERC721 can sell it on the marketplace\n  function sellBottle(uint256 _id, uint256 _priceInEther) external {\n    require(ownerOf(_id) == msg.sender, \"You are not the owner of this WineBottle\");\n    require(_priceInEther > 0, \"Price must be greater than zero\");\n    require(idToBottleStatus[_id] == bottleStatus.minted, \"This bottle has been asked for shipping or is in a different state\");\n\n\n    uint256 _priceInWei = _priceInEther * 1 ether; \n    idToSaleInfo[_id] = SaleInfo(_priceInWei, true);\n\n    emit BottleForSale(_id, _priceInWei);\n}\n\n  /// Buy a Bottle that is for sales\n  /// @param _id the Id of the Bottle\n  /// @dev a Buyer can buy a ERC721 that is for sales\n  function buyBottle(uint256 _id) external payable {\n    require(idToSaleInfo[_id].onSale, \"This bottle is not for sale\");\n    require(msg.value == idToSaleInfo[_id].price, \"The sent amount does not match the bottle price in Wei\");\n\n    address _seller = ownerOf(_id);\n    address _buyer = msg.sender;\n    uint256 _price = idToSaleInfo[_id].price;\n\n    _transfer(_seller, _buyer, _id);\n    recordSale(_id,_seller,_buyer,_price);\n\n    idToSaleInfo[_id].onSale = false;    \n    idToSaleInfo[_id].price = 0;\n\n    (bool success, ) = _seller.call{value:msg.value}(\"\");\n    require(success);\n\n    emit BottleTransfer(_seller,_buyer,_id, _price);\n}\n\n// ::::::::::::: SHIPMENT ::::::::::::: // \n\n  /// The owner of a WineBottle would like to drink or receive his bottle and he indicates the producer to ship his bottle\n  /// We suppose that there is a way to communicate with the producer through a dedicated message app (to send him his shipping address for example)\n  /// @param _id the Id of the Bottle\n  /// @dev change the status of the Bottle to follow the shipment and indicates the timestamp of the transaction\n  function indicateShipmentToProducer(uint256 _id) external {\n      require(ownerOf(_id) == msg.sender, \"You are not the owner of this WineBottle\");\n      require(idToBottleStatus[_id] == bottleStatus.minted, \"This bottle has already been asked for shipping or is in a different state\");\n\n    \n      idToBottleStatus[_id] = bottleStatus.askedForShipping;\n      shipmentConfirmedTimestamps[_id] = block.timestamp;\n      emit BottleAskedForShipping(_id,msg.sender);\n\n  }\n\n\n  /// The producer has to add a Collateral when the owner of one of his bottles would like to receive the bottle. It is a safety measure to protect the buyer.\n  /// @param _id the Id of the Bottle\n  /// @dev change the status of the Bottle to follow the shipment\n  function addCollateral(uint256 _id) external payable {\n    require(idToWineBottle[_id].producer == msg.sender, \"You are not the producer of this WineBottle\");\n    require(idToBottleStatus[_id] == bottleStatus.askedForShipping, \"This bottle has already been shipped or is in a different state\");\n    require(idToCollateral[_id] == 0, \"Collateral already added\");\n\n    //the collateral has to be equal to minimum 1/3 of the initial price of the bottle \n    uint  amount = idToSales[_id][0].price;\n    uint minCollateral = amount / 3 ;\n\n    require(msg.value >= minCollateral, \"Collateral amount not sufficient\");\n\n    idToCollateral[_id] = msg.value;\n    idToBottleStatus[_id] = bottleStatus.shipped;\n\n    emit CollateralAdded(_id, msg.sender, msg.value);\n\n}\n\n\n  /// The owner of a WineBottle confirms that he has received the Bottle at his home. It will release the collateral.\n  /// @param _id the Id of the Bottle\n  /// @dev change the status of the Bottle to follow the shipment \n  function confirmDelivery(uint256 _id) external {\n    require(ownerOf(_id) == msg.sender, \"You are not the owner of this WineBottle\");\n    require(idToCollateral[_id] > 0, \"Collateral has not been added by the producer\");\n    require(idToBottleStatus[_id] == bottleStatus.shipped || idToBottleStatus[_id] == bottleStatus.contested, \"The shipment has already been confirmed or is in a different state\");\n\n    address payable producer = payable(idToWineBottle[_id].producer);\n    uint256 collateral = idToCollateral[_id];\n    idToCollateral[_id] = 0;\n    (bool success, ) = producer.call{value: collateral}(\"\");\n    require(success, \"Failed to send back the collateral to producer\");\n\n    idToBottleStatus[_id] = bottleStatus.received;\n    \n    emit ConfirmedDelivery(_id,msg.sender,collateral);\n\n\n}\n\n\n  /// The owner of a WineBottle can contest the Shipment if he did not receive the Bottle. WineNotBlockchain will handle the issue with the producer.\n  /// Once the issue is solved, the owner can confirm the delivery.\n  /// @param _id the Id of the Bottle\n  /// @dev change the status of the Bottle to follow the shipment \n  function contestShipment(uint256 _id) external {\n    require(ownerOf(_id) == msg.sender, \"You are not the owner of this WineBottle\");\n    require(idToBottleStatus[_id] != bottleStatus.contested, \"This bottle has already been contested\");\n    require(idToBottleStatus[_id] != bottleStatus.received, \"This bottle has already been received\");\n\n    idToBottleStatus[_id] = bottleStatus.contested;\n    emit ContestedDelivery(_id,msg.sender);\n\n}\n\n\n\n}",
  "sourcePath": "/home/leomrqd/Satoshi/WineNotBlockchain/truffle/contracts/WineNotBlockchain.sol",
  "compiler": {
    "name": "solc",
    "version": "0.8.18+commit.87f61d96.Emscripten.clang"
  },
  "schemaVersion": "3.4.11",
  "updatedAt": "2023-04-04T09:45:48.024Z",
  "networkType": "ethereum",
  "devdoc": {
    "author": "Lo MARQUAND, Alyra, Promo SATOSHI",
    "events": {
      "Approval(address,address,uint256)": {
        "details": "Emitted when `owner` enables `approved` to manage the `tokenId` token."
      },
      "ApprovalForAll(address,address,bool)": {
        "details": "Emitted when `owner` enables or disables (`approved`) `operator` to manage all of its assets."
      },
      "Transfer(address,address,uint256)": {
        "details": "Emitted when `tokenId` token is transferred from `from` to `to`."
      }
    },
    "kind": "dev",
    "methods": {
      "addCollateral(uint256)": {
        "details": "change the status of the Bottle to follow the shipment",
        "params": {
          "_id": "the Id of the Bottle"
        }
      },
      "approve(address,uint256)": {
        "details": "See {IERC721-approve}."
      },
      "balanceOf(address)": {
        "details": "See {IERC721-balanceOf}."
      },
      "buyBottle(uint256)": {
        "details": "a Buyer can buy a ERC721 that is for sales",
        "params": {
          "_id": "the Id of the Bottle"
        }
      },
      "confirmDelivery(uint256)": {
        "details": "change the status of the Bottle to follow the shipment ",
        "params": {
          "_id": "the Id of the Bottle"
        }
      },
      "contestShipment(uint256)": {
        "details": "change the status of the Bottle to follow the shipment ",
        "params": {
          "_id": "the Id of the Bottle"
        }
      },
      "getApproved(uint256)": {
        "details": "See {IERC721-getApproved}."
      },
      "getBottleInfo(uint256)": {
        "details": "return the Bottle struct information ",
        "params": {
          "_id": "the Id of a existing Bottle"
        }
      },
      "getBottleOwner(uint256)": {
        "details": "return the address of the Owner of a Bottle",
        "params": {
          "_id": "the Id of a existing Bottle"
        }
      },
      "getBottleSaleInfo(uint256)": {
        "details": "return the price and the bool OnSale on a struct",
        "params": {
          "_id": "the Id of a existing Bottle"
        }
      },
      "getBottleStatus(uint256)": {
        "details": "return the enum value associated to the Id",
        "params": {
          "_id": "the Id of a existing Bottle"
        }
      },
      "getBottlesBalance()": {
        "details": "return the balance of the sender"
      },
      "getCollateralInfo(uint256)": {
        "details": "return the collateral added for a Bottle and 0 if no collateral is added",
        "params": {
          "_id": "the Id of a existing Bottle"
        }
      },
      "getSalesHistory(uint256)": {
        "details": "return an array of a struct Sales",
        "params": {
          "_id": "the Id of a existing Bottle"
        }
      },
      "getTotalSupply()": {
        "details": "return the current value of the tokenId"
      },
      "indicateShipmentToProducer(uint256)": {
        "details": "change the status of the Bottle to follow the shipment and indicates the timestamp of the transaction",
        "params": {
          "_id": "the Id of the Bottle"
        }
      },
      "isApprovedForAll(address,address)": {
        "details": "See {IERC721-isApprovedForAll}."
      },
      "isCallerOwner()": {
        "details": "return a boolean to say if this is the Owner that called the function"
      },
      "isWhitelistedProducer(address)": {
        "details": "check the producer address thanks to a bool value",
        "params": {
          "_producer": "the address of a producer"
        }
      },
      "mintWineBottle(string,string,uint256,uint256,string)": {
        "details": "a producer can mint a ERC721 of one of his Bottles with metadatas onchain. The token URI is linked to an image on IPFS but it is not stored on the blockchain. It is only here for display reasons.The mint allow to own a tokenId linked to metadatas on chain without proof of ownership of an image.",
        "params": {
          "_producerName": ", _designationOfOrigin,_vintage,_serialNumber,_tokenURI All the info about a Bottle"
        }
      },
      "name()": {
        "details": "See {IERC721Metadata-name}."
      },
      "owner()": {
        "details": "Returns the address of the current owner."
      },
      "ownerOf(uint256)": {
        "details": "See {IERC721-ownerOf}."
      },
      "renounceOwnership()": {
        "details": "Leaves the contract without owner. It will not be possible to call `onlyOwner` functions anymore. Can only be called by the current owner. NOTE: Renouncing ownership will leave the contract without an owner, thereby removing any functionality that is only available to the owner."
      },
      "revokeProducer(address)": {
        "details": "delete the producer to a whitelist thanks to a bool value",
        "params": {
          "_producer": "the address of a producer"
        }
      },
      "safeTransferFrom(address,address,uint256)": {
        "details": "See {IERC721-safeTransferFrom}."
      },
      "safeTransferFrom(address,address,uint256,bytes)": {
        "details": "See {IERC721-safeTransferFrom}."
      },
      "sellBottle(uint256,uint256)": {
        "details": "The owner of the ERC721 can sell it on the marketplace",
        "params": {
          "_id": "Id of the Bottle, _priceInEther Price in Ether"
        }
      },
      "setApprovalForAll(address,bool)": {
        "details": "See {IERC721-setApprovalForAll}."
      },
      "supportsInterface(bytes4)": {
        "details": "See {IERC165-supportsInterface}."
      },
      "symbol()": {
        "details": "See {IERC721Metadata-symbol}."
      },
      "tokenURI(uint256)": {
        "details": "See {IERC721Metadata-tokenURI}."
      },
      "transferFrom(address,address,uint256)": {
        "details": "See {IERC721-transferFrom}."
      },
      "transferOwnership(address)": {
        "details": "Transfers ownership of the contract to a new account (`newOwner`). Can only be called by the current owner."
      },
      "whitelistProducer(address)": {
        "details": "add the producer to a whitelist thanks to a bool value",
        "params": {
          "_producer": "the address of a producer"
        }
      }
    },
    "title": "The Alyra Final Project which is named the WineNotBlockhain Marketplace",
    "version": 1
  },
  "userdoc": {
    "kind": "user",
    "methods": {
      "addCollateral(uint256)": {
        "notice": "The producer has to add a Collateral when the owner of one of his bottles would like to receive the bottle. It is a safety measure to protect the buyer."
      },
      "buyBottle(uint256)": {
        "notice": "Buy a Bottle that is for sales"
      },
      "confirmDelivery(uint256)": {
        "notice": "The owner of a WineBottle confirms that he has received the Bottle at his home. It will release the collateral."
      },
      "contestShipment(uint256)": {
        "notice": "The owner of a WineBottle can contest the Shipment if he did not receive the Bottle. WineNotBlockchain will handle the issue with the producer. Once the issue is solved, the owner can confirm the delivery."
      },
      "getBottleInfo(uint256)": {
        "notice": "Return info about a Bottle"
      },
      "getBottleOwner(uint256)": {
        "notice": "Return the Owner of a Bottle"
      },
      "getBottleSaleInfo(uint256)": {
        "notice": "Return the current sale status of a Bottle"
      },
      "getBottleStatus(uint256)": {
        "notice": "Return the Status of the Bottle"
      },
      "getBottlesBalance()": {
        "notice": "Return the number of NFT owned by the sender"
      },
      "getCollateralInfo(uint256)": {
        "notice": "Return the collateral added for a Bottle "
      },
      "getSalesHistory(uint256)": {
        "notice": "Return all the Sales of a Bottle"
      },
      "getTotalSupply()": {
        "notice": "Return the number of NFT created"
      },
      "indicateShipmentToProducer(uint256)": {
        "notice": "The owner of a WineBottle would like to drink or receive his bottle and he indicates the producer to ship his bottle We suppose that there is a way to communicate with the producer through a dedicated message app (to send him his shipping address for example)"
      },
      "isCallerOwner()": {
        "notice": "Return true if the Owner called the function"
      },
      "isWhitelistedProducer(address)": {
        "notice": "Check if a producer is whitelisted"
      },
      "mintWineBottle(string,string,uint256,uint256,string)": {
        "notice": "A producer can mint a Bottle"
      },
      "revokeProducer(address)": {
        "notice": "Delete a producer from the whitelist"
      },
      "sellBottle(uint256,uint256)": {
        "notice": "Sell a Bottle"
      },
      "whitelistProducer(address)": {
        "notice": "Whistelist a producer"
      }
    },
    "version": 1
  }
}